:020000040800F2
:1000000050080020D5000008F92C00084B270008F4
:1000100000000000000000000000000000000000E0
:100020000000000000000000000000005B2E00083F
:100030000000000000000000592E00085D2F00089D
:10004000E7000008E7000008E7000008E7000008F4
:10005000E7000008E7000008E7000008E7000008E4
:100060000000000025060008E7000008E70000087F
:10007000E7000008E7000008E52F0008E700000897
:10008000E7000008E7000008E7000008D52F000897
:1000900000000000E7000008E7000008E700000893
:1000A000E7000008E7000008E7000008053B00083B
:1000B000E7000008E7000008000000000000000062
:1000C0000348854600F00CFA00480047A93C0008A8
:1000D000500800200448804704480047FEE7FEE738
:1000E000FEE7FEE7FEE7FEE7D32F0008C1000008A9
:1000F00030B50B46014600202022012409E00D46C0
:10010000D5409D4205D31D469540491B2546954047
:1001100040191546521E002DF1DC30BD70B500248B
:100120002546002801DA01244042002901DA012590
:100130004942FFF7DDFFAC4200D04042002C00D026
:10014000494270BDF0B51FB40646002082B0054696
:100150004024019100901BE0019922460F46304651
:1001600000F06CF9049A059B801A994110D310464F
:100170001946224600F052F9361A8F41019722465D
:1001800001200021009F00F049F938184D410090EE
:100190002046641E0028DFDC019B00982946324679
:1001A00007B0F0BDD2B201E00270401C491EFBD284
:1001B00070470022F6E710B513460A460446194672
:1001C000FFF7F0FF204610BDF8B502464A40D40FB5
:1001D00042004B0052085B089A4202D2024608468F
:1001E00011464A0023D0C30D4A00DDB2120EAD1AEB
:1001F000202D35DA49020126490AF6058A19002C14
:1002000000D0524220214F1B1146B9402A411018FC
:10021000C20D9A4221D0002C17D0012D08DCDA053E
:10022000801AD20F8019D207DBB200F020F9F8BD96
:10023000DA05801A012340001B06C01880185A42B4
:100240008018CA0F1043490007E04908C20711434C
:10025000DA05801A80194008801800F000F9F8BD0E
:1002600061000122511A001BF7E70122D207514019
:10027000AAE70122D2075040A6E7024670B54A40DD
:10028000D30FDB0740002DD04A002AD0010E140EF8
:10029000000212020919400A520A8418E5010446B4
:1002A0005443000A120A2E045043A4194219200C88
:1002B000C543AA18120C0125AD03521C5219120491
:1002C0007F39240400D0521C104301D44000491E41
:1002D000C2B20C06C0092018401C4008802A02D077
:1002E00003E0002070BD40084000002900DA002033
:1002F000184370BD70B502464A40D50F40004A0011
:10030000ED0740085208002814D0002A12D0C40D6E
:10031000D30D41020120C0055202490A520AE41AD3
:10032000091812187D34914201D3641C00E0490081
:10033000002C01DA002070BD0023914201D3891AFC
:100340000343400849000028F7D100290AD0914210
:1003500002D10121C90705E0914201D2012101E04A
:100360000121C943E005C018401900F078F870BDBC
:10037000420005D04200120E52428A4201DB0020A8
:100380007047C90508187047C217C10F504010B513
:100390004018CA079623002100F069F810BD10B577
:1003A00000229623114600F062F810BDC20F4100F2
:1003B00040020123400ADB05D207090EC0187F293D
:1003C00001DA00207047962903DC9623591AC840A9
:1003D00001E096398840002AF4D04042704741003D
:1003E00040020122400AD205090E80187F2901DA55
:1003F00000207047962903DC9622511AC8407047A6
:1004000096398840704700000122D207002800DB9F
:10041000101A002900DB511A8842704710B5202AB3
:1004200004DB0146203A9140002010BD914020237A
:100430009C1A0346E3401943904010BD10B5202A92
:1004400004DB0846203AD040002110BD0B46D340C3
:10045000D0402024A21A91400843194610BD00291B
:1004600004DA401C490001D140084000704770B4D4
:100470000024050C05D11024000402D1002921D04C
:100480001124050E01D100020834050F01D100012D
:10049000241D850F01D18000A41C002801DB400031
:1004A000641C002908D020252E1B0D46F540A140D4
:1004B00000D001212943084301061B1B000ADB1D54
:1004C00002D5002070BC7047DB0518188018002981
:1004D000F8DA401C4900F5D170BC40084000704774
:1004E000064C0125064E05E0E36807CC2B430C3C87
:1004F00098471034B442F7D3FFF7E6FDC84100082F
:10050000E841000870B514463C225143FF312D31BB
:1005100021806422514203F04BFBFFF735FF104E60
:100520003146FFF7E7FE014640004008FFF7A5FE11
:1005300005463146FFF7A1FEFFF738FF60806800EF
:1005400040080121FFF714FFFFF730FFA0800549A5
:100550002846FFF792FEFFF729FFE08070BD0000FC
:100560000000C8420000F04110B5052801D2052066
:1005700002E00F2800D90F20FF225232401F0A212B
:100580005043FFF7B5FDA83000D1012012214143AF
:10059000044A48088018FFF7ABFD002800D101206D
:1005A00010BD0000A086010030B58DB000201849B4
:1005B000184A0290059001910492174C07910390FC
:1005C0000690164D0094089009900B900A920C909A
:1005D0002B4601AA0021124802F024FC10482B46A9
:1005E00004AA00214830009402F01CFC0C482B4661
:1005F00007AA00219030009402F014FC08482B4612
:100600000AAA0021D830009402F00CFC0DB030BDD5
:100610000000A0410000704100F07F4500803B4693
:10062000B802002010B5024800F036FA10BD0000F4
:100630004402002010B50446006C0949800880007F
:1006400040186064207814210838FFF751FD0449F0
:100650008031A164C106C90E01208840E06410BD4C
:10066000000802400179084B8906890E8A00D218D9
:100670000265054A4432491E42658A07920F0121EC
:100680009140816570470000FC080240F0B5846C21
:10069000C56C6560046D002C02D0446D856D65608D
:1006A0000B4C6568066C1C273E400127B7403D4354
:1006B0006560046863608368102B036803D09960E9
:1006C0000068C260F0BD9A600068C160F0BD0000C3
:1006D0000000024010B524220549064801F096FDAD
:1006E00005480068016804229143016010BD0000C4
:1006F000E8030020B001002044020020FEB550496C
:100700000878C8287ED1887816287BD10A79CB78DA
:100710001002184340050C46400D2434A08108798E
:100720007127C20848793F0143011A435205520D0F
:10073000E2818209887980000243C87983021A43E2
:100740005205520D22820A7A4008D301184340050F
:10075000400D608213094A7A15012B435B055B0D3E
:10076000A3828B7AD2095B00C97A1A4349020A43F1
:100770005105490DFF22E182913251421F256D0141
:10078000019200912B463A46AE2103F030FAA08048
:100790000F21052001910090FE1C208A2B46324635
:1007A000AE2103F024FA6080642148420191009058
:1007B000A0892B463246AE2103F019FA2080C113DE
:1007C0004840401A1E220021019280B2322300913B
:1007D000642203F00CFA20725021484201910090EB
:1007E000E0892B463A46AE2103F001FA411D02DDB5
:1007F000052800DA0020E080A08A1249884202D948
:10080000012001E014E0002060720E49E08AC83146
:10081000884201D9022006E00B494018C72801D2BE
:10082000012000E00020A07200F0F0FA0749086003
:1008300024210348FFF7BDFCFFF74CFFFEBD00007D
:10084000E8030020DC0500007BFCFFFF70000020B7
:1008500072B6FEE770B51048104CC588438AE81898
:100860004210A81A228200B2991A6081E181002107
:100870002181A181EA1A22806180014603F04AF9B0
:1008800005460E20205E014603F044F94019C10FD1
:1008900008184010E08070BDA0020020380400203D
:1008A000FFB50D460421695E81B0002800DA494297
:1008B00002204EB2285E192148430A21FFF72EFC80
:1008C0002988FF270A1A14B2081803B2F5374B22F9
:1008D00012013946204603F06BF904464B221201FF
:1008E0003946184603F064F92C4B01461878012864
:1008F00001D9072816D337229202514337208002AC
:100900000F1444434B22FF2120141201F53103F050
:100910004FF904464B22FF211201F531384603F00E
:1009200047F901461878821952B247B2002A01DA13
:10093000002202E0082A00DD08227E00184F520043
:10094000BE5FBA5EED8874430B9E6F42E413F619E6
:10095000361B144CC836A68251430A9AC913521941
:10096000511AC8312181049961800399E1810121E3
:100970005956002909DD401CC0B2187008280BD355
:10098000082018700020C04305E0401E187003D2F4
:10099000002018700120587005B0F0BD74000020D0
:1009A000B4410008A0020020F0B5002808D001469C
:1009B00020314A79022A05D00422C263002008713E
:1009C0000120F0BD026813680E24A3431360426C3B
:1009D0001468FF2301339C431460026814686408A0
:1009E000640014600C4A5568066C1C2426400124DF
:1009F0002746B7403D435560826CC56C5560026D1B
:100A0000002A05D015689D431560826D406D4260D7
:100A10004C7100200871F0BD00000240F8B50024C0
:100A2000024620325179022903D00421C1630124F6
:100A30002DE001680B680E25AB430B6001680B6865
:100A40005B085B000B60416C0B68FF250135AB4315
:100A50000B6010494D68066C1C231E4001231F4685
:100A6000B7403D434D60816CC56C4D60016D002900
:100A700006D00E681D02AE430E60416D856D4D605F
:100A8000537100211171816B002900D088472046E5
:100A9000F8BD000000000240F0B42C490C68026868
:100AA0001368056C1C273D400426AE40264211D039
:100AB0005E070FD513689B0603D4146804239C4378
:100AC00014604B68046C04223C40A24013434B600A
:100AD000016B1CE00227AF40064627402036002F5E
:100AE00019D09F0717D513689B0605D413680A24ED
:100AF000A3431360012272714B68046C1C221440E2
:100B00000222A24013434B6000213171C16A0029C7
:100B10001AD0F0BC08470827AF40274214D01B0763
:100B200012D513680E24A34313604B68046C1C2277
:100B3000144001221546A5402B434B60C2637271DD
:100B400000213171416BE2E7F0BC704700000240C8
:100B500070B504003FD02548256814212818FFF7F8
:100B6000C7FA80002064022026462036707128686B
:100B70001F4908402860E168A0686269084321694C
:100B800011430843A1690843E1690843216A084306
:100B900021680A68104308602046FFF74BFD0121D9
:100BA000A06889030025884200D165602079616CC6
:100BB0008006800E0860A06CE16C41606068401E99
:100BC00003280AD82046FFF74DFD206D0560606DB3
:100BD000A16D416004E0012070BD25656565A565D6
:100BE000E563012070713571002070BDF8FFFDBF15
:100BF0000F80FFFFF8B504468C46203001790025B0
:100C000001290BD00126067141790027012907D05F
:100C10008021E163077101252846F8BD0220F8BD57
:100C200002214171E76320680168490849000160B9
:100C300061462046FFF72AFD206B002820680168E6
:100C400001D00E2205E00422914301602068016872
:100C50000A2211430160606C0168CA03074902D58A
:100C600002680A430260206D002802D002680A432D
:100C700002602068016831430160CDE70001000097
:100C800070B5044600F0C2F80546601C02D0044866
:100C90000078241800F0BAF8401BA042FAD370BDC7
:100CA00020000020F0B5002303249AE02A46012505
:100CB0009D402A407ED00E79B607B60F012E01D096
:100CC000022E16D186682746B4465E00B646B74067
:100CD0006646BE43B446CF687646B740664637435D
:100CE00087604668AE430D79ED06ED0F9D403543B4
:100CF00045600D79ED43AD0708D0C5685F00264615
:100D0000BE40B5438E68BE402E43C6600D79AD0728
:100D1000AD0F022D0ED1DD08AD002D18AC462D6AA9
:100D20005E07F60E0F27B740BD430F69B7402F434C
:100D300065462F6205685F002646BE40B5430E79C2
:100D4000B607B60FBE402E4306604D68AD03AD0F2B
:100D500046D09E08264DB6007519AC462D6E9E07EE
:100D6000F60E0F27B740BD4305273F07B84201D114
:100D700000270FE01F4FB84201D101270AE01E4FA4
:100D8000B84201D1022705E01C4FB84201D1032728
:100D900000E00527B7402F43154D664637662D689E
:100DA0004E689543F60200D51543114F3D607D68AE
:100DB000954300E014E04E68B60200D515437D600F
:100DC0000B4D80356E684F689643BF0300D51643C0
:100DD0006E602E684F689643FF0300D516432E6061
:100DE0005B1C0A681546DA4000D05FE7F0BD0000E2
:100DF000001802400004005000080050000C005091
:100E00000069084000D00120704700000148806858
:100E1000704700002000002002488168027889188D
:100E2000816070472000002010B508480024016848
:100E3000821511430160032000F00AF8002801D058
:100E4000012401E000F028F8204610BD00200240F7
:100E500070B50F4E002431780546002915D07D204D
:100E6000C000FFF745F901460A480068FFF740F95E
:100E700000F030FC002808D1042D06D200222946BB
:100E8000401E00F02BF8756000E00124204670BD84
:100E9000200000202C00002008B50948016801222C
:100EA0001143016000681040009005484038C26B53
:100EB00001040A43C263C06B0840009008BD0000F3
:100EC00040100240002805DBC106C90E0120884001
:100ED000014908607047000000E100E010B502F031
:100EE00031FE10BD10B50F4C216803225202914310
:100EF00001432160C11FFF39FA390ED10A4806218A
:100F0000006848430949FFF7F3F8401C02E0002855
:100F100005D0401E61694905F9D4002010BD0320A9
:100F200010BD0000007000402C00002040420F0067
:100F3000F8B5044600680026664D800358D565481C
:100F400000274038C06BC00009D462484038C26BEB
:100F500001040A43C263C06B0840012700905E4849
:100F60000168821511430160FFF750FF009005E012
:100F7000FFF74CFF0099401A022825D85648006810
:100F8000C005F5D5E8690321090208400FD0616A60
:100F900081420CD0E86903210902EA6988430121F2
:100FA00009040A43EA61EA698A43EA61E861C00721
:100FB0000FD0FFF72BFF009008E0FFF727FF009905
:100FC000411A4648814201D9032609E0E8698007B1
:100FD000F3D5E869032109028843616A0843E8619F
:100FE000002F05D03B484038C26B01048A43C263DE
:100FF0002078C00705D068696168800880000843D0
:1010000068612078C00606D5686903218902884393
:10101000A168084368612088800506D568690321B6
:10102000890488436169084368612088400506D5C2
:101030006869032109058843A1690843686120782C
:10104000800606D56869032109038843E1680843DF
:1010500068612088400411D56869E16980008008D2
:10106000084368610121E0698907884206D119486F
:101070004038C168012212041143C1602068800217
:1010800010D5686901218905226A88431043686187
:10109000206A884206D10F484038C16801221206F2
:1010A0001143C1602088000512D5686903218903B6
:1010B00088432169084368610121206989038842C6
:1010C00006D104484038C168012212041143C160AE
:1010D0003046F8BD40100240007000408813000008
:1010E000F8B50F46060043D04D4D28684007400F25
:1010F000B84213D22868C008C00038432860FFF700
:1011000085FE044605E0FFF781FE011B454881424C
:1011100061D828684007400FB842F4D13068424C8B
:1011200081070DD5400704D5A068072109030843AE
:10113000A060A0680F2109028843B1680843A0603D
:101140003078C00732D0706801280AD002280BD04E
:1011500000280FD03449403103280ED0C9698907CF
:1011600004E02168890301E021688901002906DB88
:101170000120F8BD21684905F8E7096AEFE7A16891
:10118000C908C9000143A160FFF740FE009006E0D6
:10119000FFF73CFE0099411A224881421BD8A06803
:1011A000382108407168C9008842F1D12868400799
:1011B000400FB84217D91A480168C908C900394315
:1011C0000160FFF723FE054607E0FFF71FFE411B06
:1011D0001448814201D90320F8BD11480068400736
:1011E000400FB842F1D13078400706D5A0680721FA
:1011F00009038843F1680843A06000F031F8A16852
:101200003C2289091140094A515CC906C90EC840EF
:101210000749086007480068FFF71AFEF8BD00009C
:101220000020024088130000001002404C410008DA
:101230002C00002024000020064807490068896827
:10124000064A4904490F8900515CC906C90EC840C5
:10125000704700002C000020001002408C41000864
:1012600010B5204CA068204A8006400F16D0A06818
:101270008006410F501001290FD0A1688906490F3F
:10128000022912D0A0688006400F042823D0A0684D
:101290008006400F032821D0002010BD20680121C6
:1012A0008004400F8140104612E0E1688B07E1683E
:1012B0009B0F4906490F491C032B00D01046FEF72F
:1012C00017FFE1684904490E4843E168490F491C8A
:1012D000FEF70EFF10BD0120C00310BD7D200002EF
:1012E00010BD0000001002400024F400F8B5040016
:1012F0007ED020783827C007ED4D002846D0A8685A
:10130000E96838408907890F102802D008280BD0D7
:1013100001E0032908D001206268000482420AD15A
:1013200029680143296015E0286880032ED560688C
:101330000028DDD02AE0052301211B0489049A42FC
:101340002A6802D10A432A60EAE782432A602868B1
:1013500088432860606800280CD0FFF757FD0646D8
:1013600004E0FFF753FD801B642873D828688003CE
:10137000F7D50BE0FFF74AFD064604E0FFF746FD10
:10138000801B6428F1D828688003F7D42078800770
:1013900069D5A868E96838408A070721920FC90211
:1013A000102802D0002813D001E0022A10D0E068F3
:1013B000002846D0286888432169084328602868A7
:1013C000FF21013108432860FFF720FD06462CE08D
:1013D0002A68520502D5E268002A89D06A687F230C
:1013E0001B029A4363691B021A436A60002800E0EB
:1013F0008DE00ED128688843216908432860286859
:1014000001218004400F8140AA48FEF771FEAA49DD
:101410000860AA480068FFF71BFD002877D122E08A
:10142000FFF7F4FC801B02289FD828684005F7D5F9
:1014300068687F210902884361690902084368607E
:1014400011E02968FF20013081432960FFF7DEFCAD
:10145000064605E098E0FFF7D9FC801B022884D8F7
:1014600028684005F7D42078954E00072ED5A86847
:101470008006400F03280AD0A0690028306A16D0E1
:10148000012108433062FFF7C1FC07460BE0306AD8
:1014900080071BD5A06900289FD017E0FFF7B6FC96
:1014A000C01B022870D8306A8007F7D50EE04008CC
:1014B00040003062FFF7AAFC074604E0FFF7A6FCF5
:1014C000C01B022860D8306A8007F7D42078400714
:1014D0006CD5A86800278006400F042818D0E86B58
:1014E000C00008D4E96B012000070143E963E96B00
:1014F00001400127009173480168C90519D40168AA
:10150000821511430160FFF781FC00900DE083E03C
:10151000F06980074AD5A06800287DD046E0FFF733
:1015200075FC0099401A02282ED866480068C0054C
:10153000F5D5A168012910D004200529F16911D041
:1015400049084900F161F1698143F161A06800280F
:1015500016D0FFF75BFC00900EE0F0690121084314
:10156000F061F3E70143F161F7E7FFF74FFC009902
:10157000411A5548814267D8F0698007F5D50EE0D9
:10158000FFF744FC009007E05EE0FFF73FFC0099A6
:10159000411A4D48814257D8F0698007F5D4002F91
:1015A00004D0E86B012109078843E863E06900285B
:1015B0007BD0A9688906490F02294FD0012636063B
:1015C0000228286805D0B0432860FFF71FFC0446B6
:1015D0003CE0B0432860FFF719FC074604E0FFF742
:1015E00015FCC01B02282FD828688001F7D4616A37
:1015F000206AA26A0843E16A120211430843216B80
:101600000843616B0843E968304A11400843E860C9
:1016100028683043286000E045E0E86801210907B8
:101620000843E860FFF7F2FB044604E0FFF7EEFB37
:10163000001B022808D828688001F7D535E0FFF79D
:10164000E5FB001B022801D90320F8BD28688001B2
:10165000F5D4E8681E490840E86026E00128F4D087
:10166000E868226A8107890F91421CD17021626A61
:101670000140914217D17F21A26A09020140120262
:10168000914210D11F214904E26A014091420AD1DE
:1016900007214906226B0140914204D1400F616B42
:1016A0004007884201D00120F8BD0020F8BD0000AD
:1016B000001002400024F4002C0000202400002030
:1016C0004010024000700040881300008C80C1115F
:1016D000FCFFFEEE094910B5401E884201D90120E9
:1016E00010BD074C60610321081F02F02BFA002097
:1016F000A06107202061002010BD0000FFFFFF0057
:1017000000E000E07047704770470000F0B5034606
:1017100020331A7F012A28D001221A7702225A7711
:1017200004686268A568124FBC4205D116460F22B4
:10173000120596434A6832437026B2430E68164338
:1017400066600068B84206D001229207904202D03B
:10175000084A904204D180228968954329438160D8
:101760000120587700201877F0BD0220F0BD00005E
:10177000002C01400004004070B5040005D025464F
:101780002035687F002802D006E0012070BD0020CF
:101790002877204600F016F802206877211D20687F
:1017A00001F028FC012240342272AA77EA772270E5
:1017B0006270A270E27022716271A271E2716A7746
:1017C000002070BD08B50068094988420FD109485A
:1017D0000268C9130A4302600068002208400090B2
:1017E00001211320FFF77AFB1320FFF76BFB08BDE5
:1017F0000020004040100240014620314A7F012A6B
:1018000001D00120704702224A7700680B4901226B
:10181000884205D09107884202D00949884207D101
:101820008168084B1940062905D0DB1F994202D078
:10183000016811430160002070470000002C014046
:101840000004004007000100014620314A7F012AC0
:1018500001D00120704702224A770168CB6801223B
:101860001343CB6000680B49884205D0910788423A
:1018700002D00949884207D18168084B19400629DE
:1018800005D0DB1F994202D001681143016000209E
:1018900070470000002C01400004004007000100D8
:1018A000F8B5054604462035287F0026012817D0C4
:1018B00001272F7702206877226890682F4B184005
:1018C000FF231B02984390600868502838D00EDC34
:1018D00020284FD006DC00284CD010281ED149E02B
:1018E0000220F8BD302845D0402817D13AE06028C2
:1018F0002ED0702818D001221203801A0FD09042E7
:101900000CD1CB684A688968206801F0CAFB20685E
:101910008168012292031143816000E001266F7704
:10192000002028773046F8BDCB684A68896820686F
:1019300001F0B7FB21688868772210438860EEE7E2
:10194000CA684968206801F00FFD5021206806E050
:10195000CA684968206801F03FFD6021206801F0F5
:10196000ABFBDCE7CA684968206801F0FDFC402158
:101970002068F4E7226801461046F0E788FFCEFFB2
:10198000007F7047F8B5044600682449884244D176
:101990002046FFF7F5FF012808D0022809D00428C7
:1019A00020D0082839D103250C2104E00025294640
:1019B00001E001250421204600F0F3FB84B2184821
:1019C0006E00815B05200007FFF71AFA154A1346DF
:1019D00017460833143F0128905B06D0201A98530D
:1019E000012019E002250821E5E7201A81B294536D
:1019F00008460D4A333890420FD2785D00280CD04B
:101A0000985B0003FEF774FB0849884200D908463A
:101A100004490839885300207855F8BD002C01404E
:101A2000AC410008600000200D0D0300FF0F000016
:101A3000F8B504460020264620360090307F0D463B
:101A400001280ED001203077002A0CD0042A19D0AA
:101A5000082A2AD00C2A51D0009000203077009814
:101A6000F8BD0220F8BDEB6806CD083D206801F006
:101A70008DFC206882690C218A438261206881691B
:101A8000AA680FE0EB6806CD083D206801F0B7FCBE
:101A900020688169032292029143816120688169F3
:101AA000AA68120211438161D7E72A682068964626
:101AB000297B6A68036A9C46036AFF270137BB4398
:101AC0000362C36909079B089B001343F0229343F9
:101AD000090E1943052263465202934372460A27B0
:101AE0003A4012021A43C16102622068C1690C22A5
:101AF0009143C1612068C169AA682CE02B68206805
:101B00009E466F682B7B026ABC46016A01273F0331
:101B1000B9430162C16903273F02B94367463F02E7
:101B20000F430F2109038F431907090C052339437C
:101B30005B039A4373460A273B401B031343C1616F
:101B400003622068C269032189028A43C261206856
:101B5000C169AA6812021143C1617EE770B5040031
:101B600005D025462035687F002802D006E00120F8
:101B700070BD00202877204600F016F80220687714
:101B8000211D206801F036FA012240342272AA7722
:101B9000EA7722706270A270E27022716271A271A3
:101BA000E2716A77002070BD10B590B0044628211C
:101BB0006846FEF7FEFA14210AA8FEF7FAFA1B4956
:101BC0002068884230D1012040050024009008940C
:101BD0006846FFF7ADF9002801D0FEF739FE14483A
:101BE0000268C1140A430260006808400F90104860
:101BF0004038426B01210A434263406B0E9108401A
:101C00000F900C480A9002200B900D9005200C9428
:101C10000AA90007FFF746F8002211460E20FFF739
:101C20005DF90E20FFF74EF910B010BD002C0140F9
:101C300040100240030C000070B502460446002626
:101C400020324034054600290CD004290DD0082943
:101C50000ED00C290FD010290FD0E078E37901289D
:101C60000FD10CE0907F2379F9E7D07F6379F6E715
:101C70002078A379F3E76078F0E7A078EEE7012B0E
:101C800001D0012070BD022000290DD0042912D0FE
:101C9000082916D00C2937D0102937D0E070E07110
:101CA0000C2935D001262DE0907720712A68D36861
:101CB0000343D3600CE0D07760712868C2680423C6
:101CC00004E02070A0712868C26808231A43C2602B
:101CD0000122286801F0D8F90F49286801228842BA
:101CE00005D09107884202D00C49884207D181680B
:101CF0000B4B1940062905D0DB1F994202D0016821
:101D000011430160304670BD6070C8E7A070C6E73F
:101D10002868C2681023D9E7002C01400004004065
:101D200007000100F8B504460068C6680569002789
:101D3000A907002913DAB10711D5F91E01610120A5
:101D40002077206880698007204602D0FFF71AFEBE
:101D500004E000F0E5F8204600F0BCF927776807BA
:101D600016D5700714D504202168C04308610220ED
:101D70002077206880698005800F204602D0FFF719
:101D800001FE04E000F0CCF8204600F0A3F927772C
:101D9000280715D5300713D508202168C0430861EE
:101DA000042020772068C0698007204602D0FFF712
:101DB000E9FD04E000F0B4F8204600F08BF9277745
:101DC000E80616D5F00614D510202168C043086136
:101DD000082020772068C0698005800F204602D047
:101DE000FFF7D0FD04E000F09BF8204600F072F908
:101DF0002777E80708D0F00706D001202168C04304
:101E00000861204600F0CCF9280601D4A80407D5C3
:101E1000300605D52168134808612046FFF773FC9A
:101E2000E80507D5300605D521680F48086120462A
:101E3000FFF768FC680608D5700606D540202168C3
:101E4000C0430861204600F0C2F9A80608D5B006D4
:101E500006D520202168C04308612046FFF754FCC6
:101E6000F8BD00007FDFFFFFFFFEFFFF70B586B00B
:101E7000044614216846FEF79CF901262568B6073A
:101E80000020224901230222214CB54229D14D6B69
:101E90001D434D634B6BDB07DB0F05934B6B13430C
:101EA0004B634B6B134005934D6B04231D434D63F4
:101EB000496B029019400591039016480090052047
:101EC0000192049269460007FEF7ECFE082000909C
:101ED00069462046FEF7E6FE4020009069460E481F
:101EE00010E00E4EB5420FD14D6B15434D63496B5B
:101EF00002901140059133210091039004930192C7
:101F000069462046FEF7CEFE06B070BD00100240C6
:101F10000004005008800000000800500004004049
:101F20007047F8B504460020264620360090307FE2
:101F30000D4601280CD00120082730770C2A48D004
:101F400008DC002A10D0042A1ED0082A06D130E06E
:101F50000220F8BD102A52D0142A60D0012000902F
:101F6000002030770098F8BD206801F0AFF82068B5
:101F700081693943816120688169042291438161CB
:101F8000206881692A6911E0206801F0DDF8206885
:101F900081690122D2021143816120688169521056
:101FA00091438161206881692A691202114381612C
:101FB000D6E7206801F006F92068C1693943C1619C
:101FC0002068C16904229143C1612068C1692A69FE
:101FD00012E0206801F034F92068C1690122D202C0
:101FE0001143C1612068C269012189028A43C2612B
:101FF0002068C1692A6912021143C161B0E72068F3
:1020000001F052F92068416D394341652068426D05
:1020100004218A4342652068416D2A6912E02068E4
:1020200001F070F92068416D0122D202114341652F
:102030002068426D012189028A4342652068416D12
:102040002A691202114341658AE770B5040005D080
:1020500025462035687F002802D006E0012070BDAB
:1020600000202877204600F017F802206877211D0D
:10207000206800F0BFFF012240342272AA77EA777D
:1020800022706270A270E27022716271A271E271BC
:102090006A77002070BD000008B501220168920730
:1020A0000A48914206D1C16B01221143C163C06B42
:1020B000104008E0064A914206D1C26B02210A4351
:1020C000C263C06B0840009008BD000000100240D1
:1020D000000400407047000010B504460223203081
:1020E00000290ED0042911D020464030082912D0F2
:1020F0000C2915D0102918D0C278012A1AD0012035
:1021000010BD827F012AFAD1837714E0C27F012AB1
:10211000F5D1C3770FE00278012AF0D103700AE00D
:102120004278012AEBD1437005E08278012AE6D19A
:10213000837000E0C3700122206800F0A5FF1349FE
:102140002068884205D0124A904202D0114A90423B
:1021500004D1426C0123DB031A434264206801224C
:10216000884205D09107884202D00B49884207D1A6
:1021700081680A4B1940062905D0DB1F994202D01D
:10218000016811430160002010BD0000002C0140D7
:1021900000440140004801400004004007000100E5
:1021A000704702460020002908D0042909D00829D8
:1021B0000AD00C2901D11068006C70471068406B80
:1021C00070471068806B70471068C06B704770472D
:1021D00010B5014680310A79012A15D001220A7111
:1021E00024228A600268136814686408640014601A
:1021F00001225207934300224266006803602020B8
:1022000088600A71104610BD022010BD10B504464A
:102210008030C068202801D0022010BD00290BD0DA
:10222000002A09D00123A0681B03984206D1206927
:10223000002803D1C80701D0012010BD0120E066AD
:1022400000202067204601F0BFFB010003D1E06EB3
:10225000012802D00121084610BD20681022026228
:10226000EFF31080012383F3108823681C68144364
:102270001C6080F31088EEE7034A10B5904202D14B
:102280000846FEF73BFA10BDB0010020704770B55C
:10229000044605468034207901281AD00120207197
:1022A0002420A06028680668026852085200026074
:1022B0002868826807235B069A430A43826028469F
:1022C00001F0B8F8286806602020A0600020207186
:1022D00070BD022070BD70B504460546803420797B
:1022E000012819D0012020712420A06028680668E8
:1022F000026852085200026028688268D200D20840
:102300000A438260284601F095F82868066020207C
:10231000A0600020207170BD022070BD7047704722
:1023200070470000F8B503680446D96918689A68D0
:10233000B44D0E462E4025468035002E75D0B24E47
:10234000B24F1640074037436ED0CF0706D0C705BF
:1023500004D501271F622B693B432B618B0708D5EE
:10236000D30706D0276802233B622B6904273B432F
:102370002B614B0708D5D30706D0276804233B629F
:102380002B6902273B432B610B0709D52023034010
:10239000334305D02668082333622E691E432E611D
:1023A0000B0509D5430107D501232668DB023362FB
:1023B0002B69202633432B612B69002B42D08906E1
:1023C0000AD520210840C9050A40104304D0616F96
:1023D000002901D020468847286921688968490674
:1023E00002D42821084232D0204601F097F9216812
:1023F0008868400627D5EFF31080012282F3108809
:102400008B68402293438B6080F3108828680028F3
:1024100019D07F4981632868FEF700FB002811D09E
:102420002868816B0DE000E017E08E0615D50127C6
:1024300020263F07064017403E430ED0616FB5E0AF
:1024400020468847F8BD2046FFF76AFFF8BD2046C2
:10245000FFF766FF00202861F8BDE66E012E7DD1F2
:10246000CE067BD5C60679D510221A6223689868F5
:10247000264640064036002849DA29680868406840
:102480000004000CE8D0B78B8742E5D9F0830868D8
:102490000068800634D4EFF31080012181F31088A6
:1024A00019681701B943196080F31088EFF31080A1
:1024B000012181F3108821688B685B085B008B60C9
:1024C00080F31088EFF31080012181F310882168D8
:1024D0008B684027BB438B6080F310882020E86026
:1024E0000020E066EFF31080012181F3108821685D
:1024F0000B6893430B6080F310882868FEF754FA4A
:1025000002202067B08BF18B401A81B235E0B08B8E
:10251000F18B401A81B2F08B00289DD000299BD00E
:10252000EFF31080012686F310881E68FF272137FD
:10253000BE431E6080F31088EFF31080012383F305
:10254000108823689E68304FFF433E409E6080F3B2
:1025500010882020E8600020E06600E011E060675D
:10256000EFF31080012383F3108823681D689543DF
:102570001D6080F31088022020672046FFF77CFE54
:10258000F8BDCE0208D5560206D501200005186216
:102590002046FFF7C4FEF8BD0E060BD501278026A6
:1025A000FF0506403A40164304D0A16F002900D031
:1025B00046E7F8BD4A0614D5420612D52046EFF389
:1025C0001081012282F310881A684024A2431A6005
:1025D00081F310882021A9600021816700F0B4F800
:1025E000F8BD0A0205D5420003D52046FFF796FE46
:1025F000F8BDC901FCD50028FADA2046FFF746FEEF
:10260000F8BD00000F0800000100001020010004C8
:10261000FD35000870B5040005D025468035A86852
:10262000002802D006E0012070BD0020287120465D
:1026300000F026F82420A8602068016849084900B5
:102640000160A06A002802D0204600F015FF204655
:1026500001F0B4F80128E7D0206841680922D202CD
:1026600091434160206881682A22914381602068FB
:102670000168012211430160204600F063FF70BD34
:1026800070B590B0064614210AA8FDF792FD2821E6
:102690006846FDF78EFD26493068884245D1012005
:1026A0000025009001956846FEF742FC002801D005
:1026B000FEF7CEF81F480268012189030A43026031
:1026C000006808400F901B484038426B02210A43C3
:1026D0004263406B0AAA08400F90C02023C20D95A8
:1026E0000AA915480E95FEF7DDFA154C134820602F
:1026F000A5603220E560606065618020A561206191
:1027000020202562E0612046FEF722FA002801D051
:10271000FEF79EF880208451002211461B20A662FD
:10272000FEF7DCFB1B20FEF7CDFB10B070BD0000F8
:1027300000380140401002400004005008000240F0
:1027400044020020704770477047FEE708B508480C
:10275000816B012211438163806B10400022009045
:1027600011460920FEF7BAFB0920FEF7ABFB08BDB6
:102770000010024008B50848416B01221143416333
:10278000416B11400091426B02210A434263406B4E
:102790000840009008BD00000010024010B50A4833
:1027A000084901603F21416000218160074A0161C1
:1027B000C2608161FEF7E0FF002801D0FEF748F813
:1027C00010BD00000020004064010020FFF900005F
:1027D00010B58CB000240A940794089409940594C9
:1027E00006942D480494009401940294294903947A
:1027F00001603F2184604160046144612749846134
:10280000C160FFF7ABF9002801D0FEF721F80120E5
:102810000003079007A92048FFF742F8002801D0DD
:10282000FEF716F80494059404A91B480694FEF7D5
:102830006DFF002801D0FEF70BF80A200090012060
:102840000190082003900294002269461248FFF785
:10285000EFF8002801D0FDF7FBFF042269460E487F
:10286000FFF7E6F8002801D0FDF7F2FF08226946DD
:102870000948FFF7DDF8002801D0FDF7E9FF0C2239
:1028800069460548FFF7D4F8002801D0FDF7E0FFBE
:102890000CB010BD002C014080000020FFFF0000A4
:1028A00010B58AB00024079408941C216846099446
:1028B000FDF77FFC01212448890701603F218460E6
:1028C0004160046121498461C160FFF7BEFB0028BB
:1028D00001D0FDF7BDFF079407A91B480994FEF737
:1028E00015FF002801D0FDF7B3FF60200090019490
:1028F00002940022694604941348FFF712FB002853
:1029000001D0FDF7A5FF042269460F48FFF709FB38
:10291000002801D0FDF79CFF082269460A48FFF70E
:1029200000FB002801D0FDF793FF0C226946064802
:10293000FFF7F7FA002801D0FDF78AFF0248FFF7FA
:1029400095FA0AB010BD0000CC0000201F4E000018
:1029500010B58AB00024079408941C216846099495
:10296000FDF727FC2448234901603F218460416032
:10297000046122498461C160FFF767FB002801D030
:10298000FDF766FF079407A91B480994FEF7BEFEF2
:10299000002801D0FDF75CFF6020009001940294B4
:1029A0000022694604941448FFF7BBFA002801D0BE
:1029B000FDF74EFF042269460F48FFF7B2FA0028E0
:1029C00001D0FDF745FF082269460B48FFF7A9FA39
:1029D000002801D0FDF73CFF0C2269460648FFF7AE
:1029E000A0FA002801D0FDF733FF0348FFF73EFAB5
:1029F0000AB010BD00040040180100201F4E000066
:102A000010B51848164901601749416000218160DE
:102A1000C16001618161C16101620C224162426158
:102A20008162FFF7F7FD002801D0FDF711FF0021BB
:102A30000C48FFF750FC002801D0FDF709FF0021EA
:102A40000848FFF724FC002801D0FDF701FF0548E6
:102A5000FFF7BEFB002801D0FDF7FAFE10BD000015
:102A600000380140B0010020A068060010B50949F7
:102A7000094A0020062343434400401CCB5AC0B2FD
:102A800013530428F6D3FEF7C1F90349143908613A
:102A900010BD0000A002002044000020F8B5FEF7A1
:102AA000B5F9164A1169411A27D0142900D9142101
:102AB00010618C2041437D208001012901DA012130
:102AC00002E0814200DD01460C4A00201432062358
:102AD0000B4C43431B1902241C5F4300D55E661B4D
:102AE0008E4201DD6C1803E04F42BE4200DA6C1AE0
:102AF000401CC0B2D4520428E9D3F8BD30000020F5
:102B0000A0020020F8B52C4C0220205EFDF73CFC12
:102B100005462088FDF743FC014620462A4618302A
:102B200000F0ECF80127FF077840FDF73FFC234D4C
:102B30002860A0801420205EFDF726FC0646608AEF
:102B4000FDF72DFC014620463246F03000F0D6F865
:102B50007840FDF72BFCE860E0820E20205EFDF758
:102B600013FC0646A089FDF71AFC014620463246B2
:102B7000A83000F0C3F8FDF719FCA86020820820F7
:102B8000205EFDF701FC0646E088FDF708FC0146E3
:102B900020463246603000F0B1F8FDF707FC03B282
:102BA00068606381288902B2A88901B2288800B2CE
:102BB00000F054F9F8BD0000A00200203000002011
:102BC000F8B5FFF76BFF2D4E0020305EFDF7DCFB04
:102BD0002B4C05462088FDF7E2FB014620462A469D
:102BE000183000F08BF80127FF077840FDF7DEFB77
:102BF0003546143D2860A0800620305EFDF7C4FBFA
:102C00000090608AFDF7CBFB01462046F030009A29
:102C100000F074F87840FDF7C9FBE860E08204201A
:102C2000305EFDF7B1FB0746A089FDF7B8FB014612
:102C300020463A46A83000F061F8FDF7B7FBA860DF
:102C400020820220305EFDF79FFB0646E088FDF7FC
:102C5000A6FB014620463246603000F04FF8FDF7F3
:102C6000A5FB03B268606381288902B2A88901B21A
:102C7000288800B200F0F2F8F8BD000044000020FF
:102C8000A002002070B5194A0A20105E0E24C1135C
:102C900003464B40145F591AE213234653409A1AD5
:102CA00009B212B2914200DC114632291CDD1049F2
:102CB0000978012901D9072901D3052100E00A215A
:102CC0004A008D1868436421FDF728FA06466C43D4
:102CD00020466421FDF722FA064902460B89981B1B
:102CE0000881888A801A888270BD0000380400201C
:102CF00074000020A0020020FEE70000FEB50400E2
:102D000014D0206C60640290E06B20640090A2619B
:102D10001046E161FDF7A9FA0646E0632078012537
:102D2000ED07002804D001283FD03CE00020FEBD84
:102D300031466068FDF7A1FA6062A0684100090EA3
:102D40000BD07100364A4908914206DA3146FDF748
:102D500094FAA16AFDF738FAA062606BA063206B59
:102D6000606330460099FDF780FA2063E26801460F
:102D70001046FDF782FAE0626169A06AFDF744FB44
:102D8000606906D36840A16AFDF73EFB02D2606924
:102D90006840A062A16A606AFDF716FAE16A31E054
:102DA000206968402062206AFEBD30460099FDF728
:102DB0005CFA6168FDF761FA606201903146A068D3
:102DC000FDF75BFA0746A062606BA063206B60634F
:102DD00001210098FDF7CCFA3146FDF74AFA029935
:102DE000FDF7F2F92063E26801461046FDF745FA67
:102DF0000646E06239460198FDF7E6F93146FDF7EF
:102E0000E3F9216AFDF7E0F920622169FDF7FCFA98
:102E10002069C7D36840216AFDF7F6FAC3D2BFE73D
:102E20000000484310B5029C002814D0002A12D09C
:102E30000170116841605168816091680C301AC05E
:102E400000210162C1618161816041610161C160F4
:102E5000C1628162416210BD70477047F8B51D467E
:102E600016460F46044600F09EFE002C01DD0121AF
:102E700000E00021494289B202460A400124A40729
:102E8000A26388436063384600F08DFE002F01DDA9
:102E9000012100E00021494289B20246134B0A4059
:102EA0001A608843E063304600F07DFE002E01DDAD
:102EB000012100E00021494289B202460C4C0A403F
:102EC000A26388436063284600F06DFE002D01DD9B
:102ED000012100E00021494289B20246044B0A4028
:102EE00040331A608843E063F8BD000040000040B2
:102EF00000040040F8B5154D2888002100F094FE2C
:102F000004466888012100F08FFE0646A888022149
:102F100000F08AFE0746E888032100F085FE0C4990
:102F2000463479180A050B49120D0A800A4AB2186C
:102F30001205120DCA802205120D8A81044AB63A82
:102F400080180005000D4882F8BD000058000020E0
:102F5000EE0A0000A00200207A03000010B5FDF781
:102F60005BFF10BD30B593B038216846FDF721F9FD
:102F7000002501200E950F95109540021195FDF743
:102F8000B1FF0224E0010390009440200590082046
:102F90000A9080030B900320079440060C9008943D
:102FA000200704950D9009956846FEF79FF90028C3
:102FB00001D072B6FEE707200EA931C102210EA88A
:102FC0001195FEF78DF8002801D072B6FEE713B018
:102FD00030BD704710B50248FEF7A4FE10BD0000DA
:102FE0006401002010B50248FEF79CFE10BD0000F1
:102FF00080000020F0B502681E4B0124A4071E4D7E
:10300000984203D0A04201D0A84203D17026B24317
:103010004E683243194E1A4F98420AD0A04208D047
:10302000A84206D0174CA04203D0B04201D0B8420B
:1030300004D103242402A243CC6822438024A24367
:103040004C69224302608A68C2620A6882629842BE
:1030500003D0B04201D0B84201D109690163012116
:1030600041610169C90703D001694908490001614B
:10307000F0BD0000002C014000040040004401406D
:10308000004801400020004010B5CB06DB0E0121B6
:10309000046A99408C430462016A9A4011430162B8
:1030A00010BD30B58468FF252D021B021343AC43CD
:1030B0000B432343836030BD8268034B1A400A43AD
:1030C00007210A43826070478FFFCFFFF0B5056A82
:1030D000026A52085200026243688269164C184E16
:1030E000224092080C6892001443022295438A6899
:1030F0002A43124DA84204D0B04202D0114FB84228
:1031000006D10827BA43CF681743042297433A46AB
:10311000A84204D0B04202D00A4DA84206D10325ED
:103120002D02AB434D691D438B692B434360846182
:10313000496841630262F0BD8FFFFEFF002C014031
:10314000004401400048014070B5046A026A10233F
:103150009A43026243688269164D2A4003252D0274
:10316000AA430D682D021543202294438A68120158
:103170002243114CA04207D18024A243CC684026B0
:1031800024012243B24305E00C4CA04202D00C4C77
:10319000A04208D10324A402A3434C69A4001C4309
:1031A0008B699B00234343608561496881630262A8
:1031B00070BD0000FF8FFFFE002C01400044014065
:1031C0000048014070B5046A026AFF2301339A4344
:1031D00002624368C269164D2A4092080D68920047
:1031E00015430122520294438A6812022243114C71
:1031F000A04208D11446CA68C614B443120222433E
:103200000415A24305E00C4CA04202D00B4CA04296
:1032100008D103242403A3434C6924011C438B6974
:103220001B0123434360C5614968C163026270BDED
:103230008FFFFEFF002C0140004401400048014088
:1032400030B5046A026A01231B039A430262436891
:10325000C269114D2A4003252D02AA430D682D0293
:1032600015430122520394438A68120322430B4CF4
:10327000A04205D00A4CA04202D00A4CA04205D17F
:103280000124A403A3434C69A40123434360C56103
:1032900049680164026230BDFF8FFFFE002C0140CF
:1032A000004401400048014070B5036A026A0126EB
:1032B0003604B24302624268456D0E4C25400C68EC
:1032C0002C437500AB430D892D041D430A4B9842D6
:1032D00005D00A4B984202D0094B984203D14B6962
:1032E000B2431B021A434260446549688165056226
:1032F00070BD00008FFFFEFF002C01400044014024
:103300000048014070B5046A026A01231B059A4314
:1033100002624268436D104D2B400D682D021D4323
:1033200001235B059C430B891E050C4B26439842E9
:1033300005D00B4B984202D00A4B984206D101248B
:103340001346A4044A69A34392021A4342604565A6
:103350004968C165066270BDFF8FFFFE002C014009
:10336000004401400048014030B5036A046A640823
:10337000640004628469F025AC43120122430A24EC
:10338000A3430B438261036230BD000070B5056A40
:10339000046A64086400046284690D4EB04206D079
:1033A0000126B607B04202D00A4EB04202D1A408AC
:1033B000A40000E001221443F02294431A07120EE5
:1033C0000A2322439D43194029438261016270BD53
:1033D000002C01400004004030B5046A036A102547
:1033E000AB43036283690F252D031203AB431A43DA
:1033F000A0239C43090121438261016230BD70B565
:10340000056A046A1026B4430462846903263602FE
:10341000B443120222430F2424031B071B0CA243B4
:103420001343A0220901954311402943836101629E
:1034300070BD0000F8B50446416E4034002915D037
:1034400000688168806809014D0F0A4E400F3746B9
:10345000315C083F385CC000FCF74AFE6085785D4F
:10346000715DC000FCF744FE2085F8BD0120608539
:10347000FAE700004441000810B5018D090707D59F
:1034800001684A680123DB039A43836B1A434A604D
:10349000018DC90707D001684A6801235B049A437C
:1034A000C36A1A434A60018D890707D501684A68D3
:1034B00001231B049A43036B1A434A60018D490799
:1034C00007D501684A6801239B049A43436B1A435A
:1034D0004A60018DC90607D50268916801231B0364
:1034E0009943C36B19439160018D890607D5016823
:1034F0008A6801235B039A43036C1A438A60018D37
:10350000490612D503685A6801210905446C8A43AB
:1035100022435A60426C8A4207D1026851680323F1
:103520005B059943836C19435160018D090607D5EA
:1035300001684A680123DB04C06C9A4302434A6075
:1035400010BD0000FEB505460026803504462E61FC
:10355000FDF75CFC01902068006820270007002828
:1035600017DA25480090002239042046019B00F01C
:1035700081FA00280DD0EFF31080012181F310882B
:1035800021680A6880239A430A6080F31088AF603C
:1035900028E020680068400727D5174800900121DF
:1035A000002289052046019B00F064FA00281CD007
:1035B000EFF31080012181F3108821680A68FF234E
:1035C00021339A430A6080F31088EFF310800121C1
:1035D00081F3108821688A68520852008A6080F35B
:1035E0001088EF602E710320FEBDAF60EF60E666CD
:1035F00026672E710020FEBDFFFFFF0110B5806A17
:10360000002201464031CA83CA82FEF789FE10BDFE
:10361000F8B5846A2046803081680546C66820680F
:10362000806800270006002806DA212904D15620E8
:103630000753204600F0A4F820688068400606D5AD
:10364000222E04D15E200753204600F067F8286937
:103650001021084328612046FEF762FEF8BD70B5D0
:1036600001460968806A096800228906002938DB5A
:103670005E210A52EFF31081012383F3108803685F
:103680001C68FF250135AC431C6081F31088EFF303
:103690001081012383F3108803689C686408640028
:1036A0009C6081F31088EFF31081012383F310886D
:1036B00003689C684025AC439C6081F310882023FC
:1036C0008C210B50C16E01290BD1EFF31081012326
:1036D00083F3108803681C681025AC431C6081F3D9
:1036E00010880267C16E012902D0FFF72BF870BD68
:1036F0005C21095AFEF7C0FD70BD10B5806A01213A
:103700000167C16E012902D0FFF71DF810BD5C21D1
:10371000095A4908FEF7B0FD10BD000010B5EFF3DF
:103720001081012282F3108802681368FF2421347B
:10373000A343136081F31088EFF31081012282F319
:103740001088026893680D4C2340936081F31088C1
:10375000C16E01290BD1EFF31081012282F3108891
:10376000026813681024A343136081F31088202299
:103770008C210A500021C166416710BDFEFFFFEF9A
:1037800010B5EFF31081012282F3108802681368EC
:10379000C024A343136081F31088EFF3108101224A
:1037A00082F31088026893680124E405A3439360C0
:1037B00081F3108820218030816010BDF8B5044667
:1037C000016880682369E5691843636900262B4313
:1037D0001843734A0B68734D2B4003430B602068FA
:1037E000416803231B039943E3681943416021683F
:1037F000A069914201D0236A18438B686A4D2B401F
:1038000003438B602068C16A636A0909090119438F
:10381000C1626649236866488B420AD140698007C5
:10382000800F09D001282CD0022828D0032816D1D7
:1038300013E060498B4201D1002111E093420ED187
:1038400041690320800201400AD001208002091A48
:1038500017D0091A13D0814201D1082100E01021AC
:103860000120554D554FC00393423DD100290AD048
:10387000022911D0042909D0082934D10BE00221F2
:10388000EEE70421ECE7FDF7D7FC01E0FDF7E8FCEB
:10389000050001D179E00546606A4000395A2846A2
:1038A0000091FCF725FC676879007918814267D898
:1038B0003903814264D3002328461946009AFCF755
:1038C00041FC020E09020302780811431818002275
:1038D00051413A460023FCF735FC03210902384ADE
:1038E000411A91424FD94BE0E269824227D1002927
:1038F00006D0022907D0042907D0082940D108E0C2
:10390000FDF79AFC03E0284603E0FDF7A9FC002838
:103910003BD0616A4900795AFCF7EAFB61684000D4
:103920004A088018FCF7E4FB0146264A1039914208
:1039300026D8511C01400007400F084323E000290E
:1039400006D0022907D0042907D0082918D108E099
:10395000FDF772FC03E0284603E0FDF781FC002838
:1039600013D0616A4900795AFCF7C2FB61684A08C2
:103970008018FCF7BDFB0146124A1039914201D96B
:10398000012602E080B22168C86020460121403053
:103990004185018500206067A0673046F8BD0000C2
:1039A00000800040F369FFCFFFF4FF1100380140B1
:1039B00040100240004400400024F400244100086C
:1039C000FFFC0F00EFFF000070B50446816540303A
:1039D000828300202546803528612221E9602968FC
:1039E000002919D0204BCB622B68204919632B6822
:1039F0001F495963296813468863A66D21683246BA
:103A000024312868FDF7F6F8002805D01020286139
:103A10002020E860012070BD206900280CD0EFF361
:103A20001080012181F3108821680A68FF23013387
:103A30001A430A6080F31088EFF31080012181F3AC
:103A40001088226893680B43936080F31088EFF32B
:103A5000108081F3108821688A6840231A438A60A5
:103A600080F31088002070BD5F360008FB36000828
:103A700011360008FFB581B005460E460446803574
:103A80000A9F32E0781C30D0FDF7C0F90499401A43
:103A9000B84218D8002F16D020680168490724D5ED
:103AA000802E22D0402E20D0C169C94309070CD4F2
:103AB000082606622046FFF731FE2E61002028719D
:103AC000012005B0F0BD0320FBE7C069C04300053D
:103AD0000BD401202168C00208622046FFF71EFEB9
:103AE0002020286100202871EDE72068C169304658
:103AF000884305D0002103988142C3D00020E0E72D
:103B00000121F8E710B50248FEF70CFC10BD0000DB
:103B1000B0010020F8B504148BB2264682B25E4391
:103B20000D1410463714584336048019002179418A
:103B300016466E43371436048019794126466E4383
:103B40008919F8BD8307FF22DB0E9A408907090E09
:103B50009940002808DB830809489B001B18186857
:103B600090430843186070470007000F0838830827
:103B700004489B001B18D86990430843D8617047DC
:103B800000E400E000ED00E002E008C8121F08C1F8
:103B9000002AFAD170477047002001E001C1121FCE
:103BA000002AFBD17047C1134840401A80B27047C9
:103BB000884201DA084670479042FCDD10467047A3
:103BC00010B51C46029B8A4201D8204610BD88428F
:103BD00001D2084602E0904200D91046401A1B1B51
:103BE0005843511AFCF79AFA001900B210BDF8B503
:103BF0000546079E06981C468A4213D98C4211D965
:103C000094420FD28319DF0FFB185B101BB2A54241
:103C100003D200930346224601E02146009628463F
:103C2000FFF7CEFFF8BD0000F8B51B4E8F00F2592C
:103C300004465000030E4D001848002B02D1415B92
:103C4000002920D0415BFF23611A09B22E3396313F
:103C5000994200D3445B445311491046FCF70DFBD5
:103C600005462046FCF79BFB0E49FCF706FB294660
:103C7000FCF7AAFA3F21F0510906FCF7A5FAFCF778
:103C8000AEFB80B2F8BD2046FCF789FBF05103483B
:103C900044532046F8BD0000D80300205000002007
:103CA0009A99193FCDCCCC3E88B0FDF7BDF8FFF70F
:103CB00059F9FEF75FFDFEF749FDFEF7A1FEFEF79D
:103CC000EFFDFEF745FEFEF769FDFEF781FDF048CA
:103CD000FDF792FD0021EE48FEF7FEF90421EC48C5
:103CE000FEF7FAF90821EA48FEF7F6F90C21E84850
:103CF000FEF7F2F9E748FDF77FFD0021E548FEF702
:103D0000EBF90421E348FEF7E7F90821E148FEF763
:103D1000E3F90C21DF48FEF7DFF9DF48FDF794FDFA
:103D20000021DE48FDF788FF0421DC48FDF784FF11
:103D30000821DA48FDF780FF0C21D848FDF77CFF09
:103D40007D20C000FCF79CFFFEF75AFEFCF7C2FC8A
:103D5000FCF72AFCD24FFDF759F80546FFF7CAF8E1
:103D60003868FF21281AF531884202DD00F0B6F9E3
:103D70001EE1CC4C607A0128F8D1A07A02281ED02E
:103D800001287DD0C949C8484860C9494860C94927
:103D90004860C9494860C948012182788902002ADF
:103DA00007D00022034618331A805A809A80DA809E
:103DB0008270C248C068281A05287DD2F6E0BF4844
:103DC0000078022806D0BD480221017000F09AF95F
:103DD000FEF74CFEB549BA484860B549BB4E48604D
:103DE000B449B8484860B4494860E188B648081802
:103DF00000B203907D200001081805B20295A0785A
:103E00003070052801D2052002E00F2801D90F20CB
:103E10003070A4490020085E04AA3178FCF772FBD8
:103E20003078FCF7A1FB0690FCF7F0FFA84E0446A3
:103E30003168401A2CD49B49009500200195085EFA
:103E400004A9029B039AFCF72BFD9C484268A11A27
:103E5000142904DB4460FCF7FDFCFEF713FF326815
:103E600006999C4851183160418802888A1A934902
:103E700010310A800289C388D21A4A80C28900E0C0
:103E800009E08389D21A8A80828A408A101AC880FF
:103E9000FEF796FE5FE7894E7078012801D0012079
:103EA000707041208149000648608149486081491D
:103EB00048608149486000E07DE00821E088615663
:103EC000421820887D2443007F48240118181018C8
:103ED00001B2D01A1B19D218B3680019EB1A00B23C
:103EE00012B2052B62D37B4B00241C5F844205DA9F
:103EF000031B3C2B00DD3C231C1906E0844205DD3E
:103F0000231A3C2B00DD3C23E41A24B2714B5C8065
:103F10000C241C5F8C4205DA0B1B3C2B00DD3C2380
:103F20001C1906E08C4205DD631A3C2B00DD3C23A6
:103F3000E41A24B2674BDC8106241C5F944205DA44
:103F4000131B3C2B00DD3C231C1906E0944205DDCD
:103F5000A31A3C2B00DD3C23E41A24B25D4B1C81E8
:103F600012241C5F844205DA031B3C2B00DD3C233A
:103F70001C1906E0844205DD231A3C2B00DD3C239E
:103F8000E41A24B2534B9C821C88031B4B4C103404
:103F90002380504BDB88D21A62804E4A9289891A5C
:103FA000A1804C49498A401AE080B560FEF7AAFD1D
:103FB00000F0A8F8CFE6474802888A1A13B26A468A
:103FC00013800293C2888A1A13B26A4653800493FC
:103FD00082898A1A13B26A4693800393428A891AA5
:103FE00009B26A46D1803C4A059106CA002407926C
:103FF000069166006846805FC11302464A40511A26
:1040000009B20A290BDC06A8825B0620314960430D
:1040100040184280294900201831885327E0282978
:1040200004DA48432821FCF779F800B23C2801DD86
:104030003C2004E03B21C943884200DA08461F497E
:1040400018318B5FC01A00B2082801DD082004E097
:104050000722D243904200DA10461A188A532046AB
:10406000062148431B490B5A9A1840184280641C89
:10407000E4B2042CBDD31149029810310880049891
:104080004880039888800598C8800C48C5608DE7F3
:10409000CC000020180100206401002080000020D6
:1040A000700000200C04002000002041B802002015
:1040B000000300204803002090030020000000209F
:1040C0000000704100004041840700007C00002097
:1040D00078000020A00200201C41000800200121DF
:1040E000890748638863C8630449086004494863D2
:1040F0008863C8630249403108607047400000404F
:104100000004004010B5044C0020207001206070B5
:10411000FCF77CFE606010BD740000200004000409
:1041200000040004010002000400060008000A0068
:104130000C0010002000400080000001010101037C
:10414000070100000804020408010101000000004A
:10415000000000000000000000000000000000005F
:10416000000000000000000000000000010000004E
:104170000200000003000000040000000600000030
:104180000700000008000000090000000000000017
:10419000000000000000000000000000010000001E
:1041A0000200000003000000040000000100020003
:1041B0000004000840782D620040C72B000039D46D
:1041C00000C0D39DC0870000E84100080000002027
:1041D00080000000883B0008684200088000002042
:1041E000D0070000983B0008FFFFFF000000000020
:1041F00000000000000000000000000000000000BF
:1042000000000000000000000100000004000000A9
:10421000000000000024F400000000000000000086
:10422000000000000000000000000000000000008E
:10423000000000000000000000000000000000007E
:10424000000800080008000800000000000000004E
:10425000000000000000000000000000000100005D
:08426000000000000000000056
:04000005080000C12E
:00000001FF
