:020000040800F2
:1000000040080020D9000008DD320008872E0008D3
:1000100000000000000000000000000000000000E0
:100020000000000000000000000000004B34000849
:1000300000000000000000004934000809350008F5
:10004000EB000008EB000008EB000008EB000008E4
:10005000EB000008EB000008EB000008EB000008D4
:1000600000000000450A0008550A0008EB000008DF
:10007000EB00000881350008EB000008EB000008E9
:10008000EB000008EB000008EB000008EB000008A4
:1000900000000000EB000008EB000008EB00000887
:1000A000EB000008EB000008EB000008EB00000884
:1000B0001D400008EB0000080000000000000000E8
:1000C0000448854600F00EFA004800477D410008CC
:1000D000C046C04640080020044880470448004706
:1000E000FEE7FEE7FEE7FEE7FEE7FEE77F350008F6
:1000F000C100000830B50B46014600202022012433
:1001000009E00D46D5409D4205D31D469540491B4B
:100110002546954040191546521E002DF1DC30BD94
:1001200070B500242546002801DA01244042002948
:1001300001DA01254942FFF7DDFFAC4200D0404221
:10014000002C00D0494270BDF0B51FB40646002017
:1001500082B005464024019100901BE0019922469F
:100160000F46304600F06CF9049A059B801A9941BD
:1001700010D310461946224600F052F9361A8F4124
:100180000197224601200021009F00F049F938180C
:100190004D4100902046641E0028DFDC019B009842
:1001A0002946324607B0F0BDD2B201E00270401CD1
:1001B000491EFBD270470022F6E710B513460A46E7
:1001C00004461946FFF7F0FF204610BDF8B5024679
:1001D0004A40D40F42004B0052085B089A4202D2B8
:1001E0000246084611464A0023D0C30D4A00DDB23C
:1001F000120EAD1A202D35DA49020126490AF605FC
:100200008A19002C00D0524220214F1B1146B940C0
:100210002A411018C20D9A4221D0002C17D0012D6E
:1002200008DCDA05801AD20F8019D207DBB200F0A1
:1002300020F9F8BDDA05801A012340001B06C0181A
:1002400080185A428018CA0F1043490007E0490835
:10025000C2071143DA05801A80194008801800F09F
:1002600000F9F8BD61000122511A001BF7E70122D5
:10027000D2075140AAE70122D2075040A6E7024622
:1002800070B54A40D30FDB0740002DD04A002AD07A
:10029000010E140E000212020919400A520A8418B3
:1002A000E50104465443000A120A2E045043A419DF
:1002B0004219200CC543AA18120C0125AD03521C8B
:1002C000521912047F39240400D0521C104301D467
:1002D0004000491EC2B20C06C0092018401C40084C
:1002E000802A02D003E0002070BD400840000029B1
:1002F00000DA0020184370BD70B502464A40D50FA1
:1003000040004A00ED0740085208002814D0002A97
:1003100012D0C40DD30D41020120C0055202490A7A
:10032000520AE41A091812187D34914201D3641C50
:1003300000E04900002C01DA002070BD002391424A
:1003400001D3891A0343400849000028F7D1002946
:100350000AD0914202D10121C90705E0914201D2A0
:10036000012101E00121C943E005C018401900F056
:1003700078F870BD420005D04200120E52428A4207
:1003800001DB00207047C90508187047C217C10F6C
:10039000504010B54018CA079623002100F069F8B4
:1003A00010BD10B500229623114600F062F810BD72
:1003B000C20F410040020123400ADB05D207090EAB
:1003C000C0187F2901DA00207047962903DC9623A4
:1003D000591AC84001E096398840002AF4D04042BA
:1003E0007047410040020122400AD205090E8018E0
:1003F0007F2901DA00207047962903DC9622511AE2
:10040000C840704796398840704700000122D207E3
:10041000002800DB101A002900DB511A88427047BF
:1004200010B5202A04DB0146203A9140002010BD7F
:10043000914020239C1A0346E3401943904010BD8D
:1004400010B5202A04DB0846203AD040002110BD18
:100450000B46D340D0402024A21A914008431946AD
:1004600010BD002904DA401C490001D140084000B9
:10047000704770B40024050C05D11024000402D18B
:10048000002921D01124050E01D100020834050FE6
:1004900001D10001241D850F01D18000A41C00287A
:1004A00001DB4000641C002908D020252E1B0D46CE
:1004B000F540A14000D001212943084301061B1B40
:1004C000000ADB1D02D5002070BC7047DB05181840
:1004D00080180029F8DA401C4900F5D170BC4008AA
:1004E00040007047064C0125064E05E0E36807CC46
:1004F0002B430C3C98471034B442F7D3FFF7E4FD8C
:10050000404800086048000870B50446006802F0E2
:10051000C3FC002824D0206881688907C90F04D152
:100520008168104A11401031816001F02DFA0546B2
:1005300012E001F029FA401B02280DD920688068DA
:10054000400709D5A06D10210843A065E06D012189
:100550000843E065084670BD206880684007E8D41D
:10056000002070BDE8FFFF7F10B5846AA16D5022A6
:1005700011420DD1A06D012149020843A0652068F8
:1005800002F08EFC00281BD0A07E002807D017E0C8
:10059000A16DC90624D5204600F0D8FD10BD206805
:1005A000016809070CD502F077FC014601200029FB
:1005B0000AD0A16D20221143A165E16D0143E165DF
:1005C000204600F0C1FD10BD21684A680C239A4303
:1005D0004A60A16DFF22013291430143A165EFE71B
:1005E000216D496B884710BD10B5806A816D40222E
:1005F00011438165C16D04221143C16500F0A6FD60
:1006000010BD10B5806A00F0A0FD10BDF8B504461D
:10061000006881688907CD0F02F036FC00282AD0D7
:10062000002D28D12068816805221140102501265F
:10063000012914D18168114A1140891C8160216807
:100640000320086001F0A0F9074610E001F09CF9D2
:10065000C01B02280BD920688068C00707D0A06D96
:100660002843A065E06D3043E0650120F8BD2068B7
:100670008068C007EAD10020F8BD0000E8FFFF7FD6
:10068000F8B5044600200090206802F0FDFB002829
:1006900045D120688168234A10261140002930D1B5
:1006A0008168D5432940491C81601F4800680721A3
:1006B0008905084000020AD51D481C490068FFF75B
:1006C00019FD401C00E0401E00900028FBD1607E18
:1006D000012824D001F058F907461BE002F0D4FBB2
:1006E000002804D1206881682940491C816001F0FC
:1006F0004BF9C01B02280DD920680068C043C00711
:1007000008D0A06D3043A065E06D01210843E0658D
:100710000846F8BD20680168C943C907DED100203A
:10072000F8BD00001700008008270140400D0300BD
:100730005C00002070B5144C0546A068281A0228F9
:1007400020DB214602220C31104800F05BFE2070B5
:10075000002807D0A01C014602880A310A80408880
:1007600048800EE00A487D214279C900012A05D05F
:100770004279491E012A01D00029F9D1034800F02D
:100780009BFEA56070BD000070000020A00000204E
:1007900024010020104B10B5984204DC00230120F6
:1007A0000E4C80070CE08123DB05984204DC00231B
:1007B000FF200B4C800503E00A4C00237F20C0057E
:1007C000002902D04C608B60C860002A02D05460BF
:1007D0009360D06010BD0000000040400000C040A9
:1007E0000000B0400000A0400D4A10B5914202DC6C
:1007F0007F24E4050AE00B4A914201DC0A4C05E043
:100800000A4A914201DC0A4C00E00A4CFFF7BEFDA7
:100810002146FFF734FDFFF7CBFD00B210BD00000D
:100820000000204000006040EC51783F0000904004
:10083000D7A3703FC3F5683F10B50C46002800D120
:1008400005200C4A01461046FFF754FCFA2800D256
:10085000FA20002C03D032214843074903E032211B
:1008600048434B210901FFF745FC082800D2082026
:1008700010BD0000C409000014050000F0B50D46CD
:10088000444C0E21615E85B00818C10F0818401055
:1008900000B20121E081890229806422514203F0E3
:1008A000F6FBFFF773FD3C49FFF726FD460076088F
:1008B00001463046FFF7E3FC07463749FFF7DFFC08
:1008C000FFF776FD00B20490780040083349FFF747
:1008D000D6FCFFF76DFD00B2039031493846FFF7B3
:1008E000CEFCFFF765FD00B22E4F02903946304630
:1008F000FFF7C5FC3946FFF769FC00900820205E31
:10090000FFF744FD06467F20C0050099FFF7AFFCC6
:1009100031460190FFF7B3FC06460498FFF736FD19
:100920000099FFF7ACFC3146FFF750FCFFF740FDA4
:10093000074668800A20205EFFF728FD01460198DF
:10094000FFF79DFC06460398FFF720FD0099FFF78F
:1009500096FC3146FFF73AFCFFF72AFD0646A880D1
:100960000C20205EFFF712FD01460198FFF787FC7F
:1009700001900298FFF70AFD0099FFF780FC0199AA
:10098000FFF724FCFFF714FDE88027816681A08132
:1009900005B0F0BD880000200000C84200004040C3
:1009A00000002042CDCCCC3E10B5022909D0002158
:1009B000074A545C931C002C05D049005852002073
:1009C00010BD0121F4E74C00185301205054F6E704
:1009D0006000002010B5054909780C2901D80121D3
:1009E00000E00021FFF728FF10BD00008800002074
:1009F00030B587B00D480E490E4A01AB07C30E4C07
:100A00000E4D00940692059104902B4601AA0021F8
:100A10000B4802F0FFFC0A482B4604AA002148308C
:100A2000009402F0F7FC07B030BD00000000404128
:100A30008FC2F53C0000A04000F07F4500803B469F
:100A40004C03002010B5024800F0EAFD10BD000084
:100A5000D802002010B5024800F0E2FD10BD0000F1
:100A60000401002010B50446006C0949800880008C
:100A700040186064207814210838FFF73BFB0449D4
:100A80008031A164C106C90E01208840E06410BD18
:100A9000000802400179084B8906890E8A00D218A5
:100AA0000265054A4432491E42658A07920F0121B8
:100AB0009140816570470000FC080240F0B5846CED
:100AC000C56C6560046D002C02D0446D856D656059
:100AD0000B4C6568066C1C273E400127B7403D4320
:100AE0006560046863608368102B036803D09960B5
:100AF0000068C260F0BD9A600068C160F0BD00008F
:100B00000000024010B524220549064801F02CFFE0
:100B100005480068016804229143016010BD00008F
:100B2000DC03002044020020D8020020FEB5544916
:100B30000878C8287ED188781628FBD10A79CB7826
:100B40001002184340050C46400D2434A08108795A
:100B50007127C20848793F0143011A435205520DDB
:100B6000E2818209887980000243C87983021A43AE
:100B70005205520D22820A7A4008D30118434005DB
:100B8000400D608213094A7A15012B435B055B0D0A
:100B9000A382D3098A7A52001343CA7A55022B439F
:100BA0005B055B0DE382097BD20849010A435105CD
:100BB000490DFF222183913251421F256D0101927F
:100BC00000912B463A46AE2103F07CFAA0800F211B
:100BD000052001910090FE1C208A2B463246AE2152
:100BE00003F070FA60806421484201910090A0896E
:100BF0002B463246AE2103F065FA2080C1134840EF
:100C0000401A1E220021019280B2322300916422F8
:100C100003F058FA20725021484201910090E08977
:100C20002B463A46AE2103F04DFA411D04DD05285E
:100C300002DA00E01DE00020E080A18A1148814234
:100C400001D9012100E000216172218B814201D98B
:100C500004200DE00B49E08AC831884201D9022006
:100C600006E009494018C72801D2012000E0002011
:100C7000A07224210248FFF79EFAFFF743FFFEBD52
:100C8000DC030020DC0500007BFCFFFF72B6FEE702
:100C900010B50E4A118893895818C40F20184410B3
:100CA0000B48091B048209B201811B1B1BB2838103
:100CB000948912884943A21A028000225B43428031
:100CC0005918CA0F51184910C18010BD34030020B3
:100CD0002C040020FFB502200C46085E1921484371
:100CE00083B00A21FFF71CFA21882E4D0A1A081832
:100CF00000B2019017B20121A878FFF79DFDFFF720
:100D000050FB2949FFF7BBFA01462848FFF7F4FAE0
:100D1000064601463846FFF767FD009031460198C8
:100D2000FFF762FDA8806E610399002903DA0421B0
:100D3000615E4B4201E00423E35E1A490978CB1857
:100D40005BB24AB2002B01DA002302E0182B00DD6F
:100D50001823174D5600AE5F5B00ED5EE388069FDB
:100D60005C423F19009C68437443059EE413F318EA
:100D70003C1B104EC0131B1A7480F3810E4B1D8058
:100D80000E4B18800E4B07481A70491CC9B20170EF
:100D9000182904D900210170C188491CC18007B0FD
:100DA000F0BD0000880000200000C84100007A4427
:100DB0000C48000834030020480000204A000020AE
:100DC0004C000020F0B50446002089B025460646B8
:100DD00040350290287D01280ED001272F7520462E
:100DE000FFF714FC0590206802F052F80028A06D6F
:100DF00005D01021084388E0022009B0F0BDFF2192
:100E00000131884302210843A0652068C168414A36
:100E100011400491C168D2431140C1600021206893
:100E2000826817239A43DB071A4382603A4A206894
:100E30000DE0029B5B1C0293934208D3A06D02213C
:100E4000884310210843A065002028754DE0836881
:100E5000DB0FEED18030406B491C4006400E8619F6
:100E60000829DCD33046FFF745F90146206882683F
:100E70002A4B1A40521C826020680269920F920726
:100E800013D1274A12680F26B60432400726B6044B
:100E9000B2420AD3920C3E46D21E96407208019688
:100EA00000E0521E0192002AFBD18030426BD20931
:100EB000D2010A434263206881681940891C81601D
:100EC00000F062FD064612E000F05EFD801B022885
:100ED0000DD9206801F0DCFF002808D0A06D10219A
:100EE0000843A065E06D3843E065012085E7206890
:100EF00001F0CEFF0028E7D12068C168049A1143B1
:100F0000C160A06D80088000401CA065002028758D
:100F1000059872E70380000000F20200E8FFFF7FFF
:100F200008270140F8B500270646044640360097DA
:100F3000307D0D4601280FD001203075206801F06A
:100F4000ABFF00280AD0A06D20210843A06501272F
:100F5000002030753846F8BD0220F8BD68680228C8
:100F60007ED001222169D207914202D0121D914206
:100F700006D120682968826A4903490B0A436EE05A
:100F8000C206D20E0F20216E904081432868430391
:100F900002D0C3074BD102E04000C00E48E08307F7
:100FA00001D5012044E0430701D5022040E00307BA
:100FB00001D503203CE0C30601D5042038E08306B8
:100FC00001D5052034E0430601D5062030E00306B4
:100FD00001D507202CE0C30501D5082028E08305B2
:100FE00001D5092024E0430501D50A2020E00305AE
:100FF00001D50B201CE0C30401D50C2018E08304AC
:1010000001D50D2014E0430401D50E2010E00304A7
:1010100001D50F200CE0C30301D5102008E08303A5
:1010200001D5112004E0400301D5122000E000208A
:101030009040014321666968E2698808401C90423B
:1010400010D820682B68826A9C46C906C90E0F23F7
:101050008B409A4363469B001B0F8B401A4300E072
:101060003BE082622168AB6828684A6900028243DB
:1010700018404001400902434A612868002800DB0B
:1010800066E72B4A116807239B051940294B9842B4
:1010900014D10B0212D4C0020143104601F008FF24
:1010A000264825490068FFF725F80C21401C4843D5
:1010B00000E0401E00900028FBD149E7204B9842F9
:1010C00003D1CB0101D4800205E01E4B9842D7D159
:1010D0004802D5D45802014325E001212069C907FF
:1010E000884202D0091D884206D120682968826A98
:1010F0004903490B8A43826228680028C0DA0C4AF7
:10110000116807239B0519400A4B984201D1C00280
:1011100008E00B4B984201D1800203E0094B984252
:10112000AED140028143104601F0C2FE10E700003C
:1011300008270140001000B0400D03005C000020B3
:10114000004000B8002000B47047704770470000AE
:10115000FEB50027044601973E46029700970028F7
:1011600005D02546A06D2035002802D007E00120DB
:10117000FEBD204600F0FCF8E665542006552068C8
:101180008168C900C90F12D18168724A11400122D9
:1011900012071143816071486F490068FEF7AAFF8A
:1011A0004000801C00E0401E00900028FBD1206819
:1011B0008168C900C90F08D1A16D10221143A16532
:1011C000E16D01221143E165174601F065FEA16D55
:1011D000C90601D4002804D0A06D10210843A065E1
:1011E000B4E0A06DFF210131884302210843A065CE
:1011F000206801F049FE00286DD1217EA068890396
:101200000843617ECA03A17E4B031A431043226B3D
:10121000002A01D0012212031043E2681043226920
:10122000002A02DA5200520801E00122520510435E
:101230002A7B52001043019A10432A78012A09D1CF
:10124000002922D0A16D20221143A165E16D012268
:101250001143E165616A002906D0FF23C1331940BB
:10126000A26A0143104608432168CA683C4B1A40F1
:101270000243CA606168029A890F8907E06C0A43D9
:1012800010432A7F012A04D00CE0012109040843FD
:10129000E0E7636C226C491C1A43A36C0B431146B4
:1012A0001943084321680A692E4B1A4002430A6118
:1012B00003216068890788420DD0590788420AD007
:1012C0004900884207D0284A91680F239B0499431C
:1012D0001840014391600021626B206801F0EFFD2E
:1012E0002249A26B206801F0EAFD0F202169C0436A
:1012F00000291CD00122520591420AD121688A6A34
:10130000227F9200121FD206D20E9040226E10430E
:10131000886220684069616B4007400F88420BD1AA
:10132000E665A06D80088000401CA0650FE0216884
:101330008A6A02438A62ECE7A06D02218843102189
:101340000843A065E06D01210843E06501273846A8
:10135000FEBD0000E8FFFF7F400D03005C000020A1
:101360000102DEFF02FCFF1F0027014004FFFF0710
:1013700070B586B0064614216846FEF71CFF1D496D
:101380003068884234D11C480268012109050A43AB
:10139000026000680840059017484038416B012200
:1013A00011434163406B002510400590C32000901D
:1013B00003200190052069460295000700F036FAE7
:1013C0000F4C0E482060A5600520E560606080201D
:1013D000206140006061E56180002562A0612046D7
:1013E00000F07AF9002801D0FFF750FC3465A662BE
:1013F00006B070BD00240140401002401C000240B5
:1014000004010020F7B50446006801F045FD0028FE
:1014100045D125464035287D012840D001272F752C
:101420002068C1681F4EC9070CD101F02DFD0028AE
:1014300004D0206881683140891C81602068C168BF
:101440003943C1602046FFF71BF9002826D1A06D63
:1014500015490840FF2101310843A0650020E065DF
:10146000226D1249D162226D11491163226D114919
:10147000516322681C211160287520684168102280
:10148000114341602168206D4031029B019A00F0B8
:1014900075F921688A683240121D8A60FEBD0220FB
:1014A000FEBD0000E8FFFF7FFEF1FFFF69050008B9
:1014B00003060008E9050008F8B50646044640366C
:1014C000307D012807D0012737752046FFF71CF82B
:1014D000050002D028E00220F8BD206D2521095C1E
:1014E000022907D100F024F8050003D0A06D4021A7
:1014F0000843A06520684168102291434160002D97
:10150000204602D0FFF782F809E0FFF77FF80500D8
:1015100005D1A06DFF21013188433843A0652068C3
:10152000C16849084900C160002030752846F8BDEF
:10153000F0B5002808D0014620314A79022A05D0AA
:101540000422C263002008710120F0BD0268136804
:101550000E24A3431360426C1468FF2301339C43A1
:101560001460026814686408640014600C4A5568CA
:10157000066C1C24264001242746B7403D43556095
:10158000826CC56C5560026D002A05D015689D43BC
:101590001560826D406D42604C7100200871F0BD95
:1015A00000000240F8B50024024620325179022999
:1015B00003D00421C16301242DE001680B680E25CE
:1015C000AB430B6001680B685B085B000B60416C10
:1015D0000B68FF250135AB430B6010494D68066C65
:1015E0001C231E4001231F46B7403D434D60816CC4
:1015F000C56C4D60016D002906D00E681D02AE431A
:101600000E60416D856D4D60537100211171816BCC
:10161000002900D088472046F8BD000000000240A5
:10162000F0B42C490C6802681368056C1C273D4017
:101630000426AE40264211D05E070FD513689B06E4
:1016400003D4146804239C4314604B68046C042284
:101650003C40A24013434B60016B1CE00227AF40AB
:10166000064627402036002F19D09F0717D513684C
:101670009B0605D413680A24A343136001227271E8
:101680004B68046C1C2214400222A24013434B609E
:1016900000213171C16A00291AD0F0BC084708271F
:1016A000AF40274214D01B0712D513680E24A34362
:1016B00013604B68046C1C22144001221546A5409F
:1016C0002B434B60C263727100213171416BE2E7C1
:1016D000F0BC70470000024070B504003FD02548C0
:1016E000256814212818FEF705FD800020640220DB
:1016F00026462036707128681F4908402860E16836
:10170000A06862690843216911430843A16908433D
:10171000E1690843216A084321680A6810430860A8
:101720002046FFF79FF90121A06889030025884220
:1017300000D165602079616C8006800E0860A06C25
:10174000E16C41606068401E03280AD82046FFF71C
:10175000A1F9206D0560606DA16D416004E001207C
:1017600070BD25656565A565E563012070713571FE
:10177000002070BDF8FFFDBF0F80FFFFF8B50446E5
:101780008C4620300179002501290BD001260671F5
:1017900041790027012907D08021E16307710125E4
:1017A0002846F8BD0220F8BD02214171E763206898
:1017B000016849084900016061462046FFF77EF94B
:1017C000206B00282068016801D00E2205E0042269
:1017D00091430160206801680A2211430160606C36
:1017E0000168CA03074902D502680A430260206DF6
:1017F000002802D002680A43026020680168314371
:101800000160CDE70001000070B5044600F0BCF8AF
:101810000546601C02D004480078241800F0B4F893
:10182000401BA042FAD370BD50000020F0B5002349
:1018300003249AE02A4601259D402A407ED00E7955
:10184000B607B60F012E01D0022E16D186682746A4
:10185000B4465E00B646B7406646BE43B446CF685F
:101860007646B7406646374387604668AE430D7993
:10187000ED06ED0F9D40354345600D79ED43AD0715
:1018800008D0C5685F002646BE40B5438E68BE409E
:101890002E43C6600D79AD07AD0F022D0ED1DD08C8
:1018A000AD002D18AC462D6A5E07F60E0F27B74027
:1018B000BD430F69B7402F4365462F6205685F003F
:1018C0002646BE40B5430E79B607B60FBE402E433E
:1018D00006604D68AD03AD0F46D09E08264DB6009C
:1018E0007519AC462D6E9E07F60E0F27B740BD4307
:1018F00005273F07B84201D100270FE01F4FB8422C
:1019000001D101270AE01E4FB84201D1022705E0AC
:101910001C4FB84201D1032700E00527B7402F43F1
:10192000154D664637662D684E689543F60200D51C
:101930001543114F3D607D68954300E014E04E680B
:10194000B60200D515437D600B4D80356E684F683B
:101950009643BF0300D516436E602E684F689643CA
:10196000FF0300D516432E605B1C0A681546DA405B
:1019700000D05FE7F0BD00000018024000040050F6
:1019800000080050000C00500148806870470000BB
:1019900050000020024881680278891881607047F1
:1019A0005000002010B5084800240168821511433A
:1019B0000160032000F00AF8002801D0012401E0B2
:1019C00000F028F8204610BD0020024070B50F4EF0
:1019D000002431780546002915D07D20C000FEF78F
:1019E00089FB01460A480068FEF784FB00F030FCE2
:1019F000002808D1042D06D200222946401E00F0FE
:101A00002BF8756000E00124204670BD50000020D6
:101A10005C00002008B509480168012211430160FB
:101A200000681040009005484038C26B01040A432A
:101A3000C263C06B0840009008BD00004010024027
:101A4000002805DBC106C90E012088400149086055
:101A50007047000000E100E010B502F0E7FA10BDA9
:101A600010B50F4C216803225202914301432160BB
:101A7000C11FFF39FA390ED10A48062100684843D0
:101A80000949FEF737FB401C02E0002805D0401E44
:101A900061694905F9D4002010BD032010BD000084
:101AA000007000405C00002040420F00F8B5044682
:101AB00000680026664D800358D5654800274038E9
:101AC000C06BC00009D462484038C26B01040A43AD
:101AD000C263C06B0840012700905E480168821510
:101AE00011430160FFF750FF009005E0FFF74CFF46
:101AF0000099401A022825D856480068C005F5D537
:101B0000E8690321090208400FD0616A81420CD0C4
:101B1000E86903210902EA698843012109040A43AB
:101B2000EA61EA698A43EA61E861C0070FD0FFF71A
:101B30002BFF009008E0FFF727FF0099411A464865
:101B4000814201D9032609E0E8698007F3D5E869F5
:101B5000032109028843616A0843E861002F05D028
:101B60003B484038C26B01048A43C2632078C007F7
:101B700005D0686961688008800008436861207842
:101B8000C00606D56869032189028843A168084315
:101B900068612088800506D5686903218904884327
:101BA0006169084368612088400506D5686903219A
:101BB00009058843A169084368612078800606D535
:101BC0006869032109038843E16808436861208844
:101BD000400411D56869E1698000800808436861A4
:101BE0000121E0698907884206D119484038C16857
:101BF000012212041143C1602068800210D5686977
:101C000001218905226A884310436861206A88425D
:101C100006D10F484038C168012212061143C16045
:101C20002088000512D5686903218903884321694A
:101C300008436861012120698903884206D104486C
:101C40004038C168012212041143C1603046F8BD1A
:101C5000401002400070004088130000F8B50F46A5
:101C6000060043D04D4D28684007400FB84213D2BC
:101C70002868C008C00038432860FFF785FE044686
:101C800005E0FFF781FE011B4548814261D82868C5
:101C90004007400FB842F4D13068424C81070DD55F
:101CA000400704D5A068072109030843A060A06885
:101CB0000F2109028843B1680843A0603078C0074B
:101CC00032D0706801280AD002280BD000280FD02B
:101CD0003449403103280ED0C969890704E02168DE
:101CE000890301E021688901002906DB0120F8BD94
:101CF00021684905F8E7096AEFE7A168C908C90042
:101D00000143A160FFF740FE009006E0FFF73CFEB4
:101D10000099411A224881421BD8A0683821084006
:101D20007168C9008842F1D128684007400FB84265
:101D300017D91A480168C908C90039430160FFF77B
:101D400023FE054607E0FFF71FFE411B14488142B2
:101D500001D90320F8BD114800684007400FB84280
:101D6000F1D13078400706D5A068072109038843E0
:101D7000F1680843A06000F031F8A1683C228909AD
:101D80001140094A515CC906C90EC840074908609C
:101D900007480068FFF71AFEF8BD00000020024067
:101DA0008813000000100240AC4700085C000020CF
:101DB000540000200648074900688968064A49041B
:101DC000490F8900515CC906C90EC8407047000020
:101DD0005C00002000100240EC47000810B5204CC9
:101DE000A068204A8006400F16D0A0688006410FE8
:101DF000501001290FD0A1688906490F022912D07D
:101E0000A0688006400F042823D0A0688006400FF9
:101E1000032821D0002010BD206801218004400F3C
:101E20008140104612E0E1688B07E1689B0F49068C
:101E3000490F491C032B00D01046FEF75BF9E168FF
:101E40004904490E4843E168490F491CFEF752F91D
:101E500010BD0120C00310BD7D20000210BD000098
:101E6000001002400024F400F8B504007ED0207871
:101E70003827C007ED4D002846D0A868E9683840EB
:101E80008907890F102802D008280BD001E0032908
:101E900008D001206268000482420AD12968014307
:101EA000296015E0286880032ED560680028DDD001
:101EB0002AE0052301211B0489049A422A6802D1E1
:101EC0000A432A60EAE782432A6028688843286038
:101ED000606800280CD0FFF757FD064604E0FFF7C6
:101EE00053FD801B642873D828688003F7D50BE066
:101EF000FFF74AFD064604E0FFF746FD801B642815
:101F0000F1D828688003F7D42078800769D5A868BD
:101F1000E96838408A070721920FC902102802D0C9
:101F2000002813D001E0022A10D0E068002846D033
:101F3000286888432169084328602868FF21013107
:101F400008432860FFF720FD06462CE02A6852056A
:101F500002D5E268002A89D06A687F231B029A436F
:101F600063691B021A436A60002800E08DE00ED10D
:101F70002868884321690843286028680121800473
:101F8000400F8140AA48FEF7B5F8AA490860AA4860
:101F90000068FFF71BFD002877D122E0FFF7F4FC73
:101FA000801B02289FD828684005F7D568687F21E4
:101FB00009028843616909020843686011E02968E1
:101FC000FF20013081432960FFF7DEFC064605E073
:101FD00098E0FFF7D9FC801B022884D828684005C8
:101FE000F7D42078954E00072ED5A8688006400FBC
:101FF00003280AD0A0690028306A16D001210843BE
:102000003062FFF7C1FC07460BE0306A80071BD542
:10201000A06900289FD017E0FFF7B6FCC01B02287C
:1020200070D8306A8007F7D50EE040084000306273
:10203000FFF7AAFC074604E0FFF7A6FCC01B022836
:1020400060D8306A8007F7D4207840076CD5A8683C
:1020500000278006400F042818D0E86BC00008D481
:10206000E96B012000070143E963E96B01400127A7
:10207000009173480168C90519D40168821511439C
:102080000160FFF781FC00900DE083E0F0698007BC
:102090004AD5A06800287DD046E0FFF775FC00997E
:1020A000401A02282ED866480068C005F5D5A168F8
:1020B000012910D004200529F16911D049084900EF
:1020C000F161F1698143F161A068002816D0FFF742
:1020D0005BFC00900EE0F06901210843F061F3E73A
:1020E0000143F161F7E7FFF74FFC0099411A5548AA
:1020F000814267D8F0698007F5D50EE0FFF744FC10
:10210000009007E05EE0FFF73FFC0099411A4D4860
:10211000814257D8F0698007F5D4002F04D0E86BCE
:10212000012109078843E863E06900287BD0A9689A
:102130008906490F02294FD0012636060228286851
:1021400005D0B0432860FFF71FFC04463CE0B043D5
:102150002860FFF719FC074604E0FFF715FCC01BD9
:1021600002282FD828688001F7D4616A206AA26A01
:102170000843E16A120211430843216B0843616B73
:102180000843E968304A11400843E8602868304352
:10219000286000E045E0E868012109070843E8609D
:1021A000FFF7F2FB044604E0FFF7EEFB001B0228FA
:1021B00008D828688001F7D535E0FFF7E5FB001B5C
:1021C000022801D90320F8BD28688001F5D4E86809
:1021D0001E490840E86026E00128F4D0E868226A39
:1021E0008107890F91421CD17021626A014091429E
:1021F00017D17F21A26A090201401202914210D137
:102200001F214904E26A014091420AD1072149068F
:10221000226B0140914204D1400F616B400788421C
:1022200001D00120F8BD0020F8BD000000100240E0
:102230000024F4005C000020540000204010024004
:1022400000700040881300008C80C111FCFFFEEE7E
:10225000094910B5401E884201D9012010BD074C24
:1022600060610321081F01F0E1FE0020A06107204A
:102270002061002010BD0000FFFFFF0000E000E033
:102280007047704770470000F0B5034620331A7F4F
:10229000012A28D001221A7702225A77046862683C
:1022A000A568124FBC4205D116460F22120596436F
:1022B0004A6832437026B2430E681643666000686F
:1022C000B84206D001229207904202D0084A9042BA
:1022D00004D1802289689543294381600120587781
:1022E00000201877F0BD0220F0BD0000002C014056
:1022F0000004004070B5040005D025462035687FF5
:10230000002802D006E0012070BD0020287720467A
:1023100000F016F802206877211D206801F038F9D6
:10232000012240342272AA77EA7722706270A2708A
:10233000E27022716271A271E2716A77002070BD51
:1023400010B58CB0044628216846FDF734FF1149CA
:10235000206888421BD10120400500900020089091
:102360006846FFF7A3FB002801D0FEF78FFC0A4860
:102370000268C1140A4302600068002208400A9003
:1023800011460D20FFF768FB0D20FFF759FB0CB03D
:1023900010BD0000002C01404010024001462031D9
:1023A0004A7F012A01D00120704702224A77006843
:1023B0000B490122884205D09107884202D0094981
:1023C000884207D18168084B1940062905D0DB1FD8
:1023D000994202D00168114301600020704700005B
:1023E000002C01400004004007000100F8B505463C
:1023F00004462035287F0026012817D001272F7793
:1024000002206877226890682F4B1840FF231B0238
:10241000984390600868502838D00EDC20284FD0B0
:1024200006DC00284CD010281ED149E00220F8BD5F
:10243000302845D0402817D13AE060282ED07028A7
:1024400018D001221203801A0FD090420CD1CB6811
:102450004A688968206801F0F2F8206881680122E2
:1024600092031143816000E001266F7700202877F6
:102470003046F8BDCB684A688968206801F0DFF80B
:1024800021688868772210438860EEE7CA68496847
:10249000206801F037FA5021206806E0CA684968D0
:1024A000206801F040FA6021206801F0D3F8DCE7F1
:1024B000CA684968206801F025FA40212068F4E7DD
:1024C000226801461046F0E788FFCEFF7047000003
:1024D000F8B504460068C66805690027A907002901
:1024E00013DAB10711D5F91E0161012020772068A8
:1024F00080698007204602D0FFF7E8FF04E000F083
:10250000D3F8204600F0AAF92777680716D5700798
:1025100014D504202168C043086102202077206878
:1025200080698005800F204602D0FFF7CFFF04E0CE
:1025300000F0BAF8204600F091F92777280715D562
:10254000300713D508202168C04308610420207794
:102550002068C0698007204602D0FFF7B7FF04E07B
:1025600000F0A2F8204600F079F92777E80616D5A2
:10257000F00614D510202168C04308610820207798
:102580002068C0698005800F204602D0FFF79EFFBB
:1025900004E000F089F8204600F060F92777E807AA
:1025A00008D0F00706D001202168C043086120460A
:1025B00000F0BAF9280601D4A80407D5300605D5DD
:1025C0002168134808612046FFF75BFEE80507D540
:1025D000300605D521680F4808612046FFF750FEF8
:1025E000680608D5700606D540202168C0430861FA
:1025F000204600F09AF9A80608D5B00606D5202096
:102600002168C04308612046FFF73CFEF8BD00008A
:102610007FDFFFFFFFFEFFFF70B586B00446142189
:102620006846FDF7C8FD012322689B0700251B496A
:10263000012002241A4E9A421CD14A6B02434A637B
:10264000486BC007C00F0590486B20434863486B38
:102650006A4620400590D81331C20520694600071C
:1026600003950494FFF7E2F808206A4631C2039507
:1026700004940DE00B4B9A420ED14A6B22434A63FD
:10268000496B6A4621400591302132C2039504907E
:1026900069463046FFF7CAF806B070BD0010024028
:1026A00000040050000400407047F8B504460020C4
:1026B000264620360090307F0D4601280CD00120A0
:1026C000082730770C2A48D008DC002A10D0042ACA
:1026D0001ED0082A06D130E00220F8BD102A52D0C0
:1026E000142A60D001200090002030770098F8BDB7
:1026F000206800F0B9FF2068816939438161206852
:102700008169042291438161206881692A6911E00D
:10271000206800F0E7FF206881690122D20211439E
:1027200081612068816952109143816120688169CB
:102730002A69120211438161D6E7206801F010F87E
:102740002068C1693943C1612068C169042291438D
:10275000C1612068C1692A6912E0206801F03EF871
:102760002068C1690122D2021143C1612068C26997
:10277000012189028A43C2612068C1692A69120263
:102780001143C161B0E7206801F05CF82068416D39
:10279000394341652068426D04218A4342652068BF
:1027A000416D2A6912E0206801F07AF82068416DD5
:1027B0000122D202114341652068426D0121890244
:1027C0008A4342652068416D2A69120211434165BE
:1027D0008AE770B5040005D025462035687F0028BB
:1027E00002D006E0012070BD00202877204600F0CE
:1027F00017F802206877211D206800F0C9FE012229
:1028000040342272AA77EA7722706270A270E27076
:1028100022716271A271E2716A77002070BD0000BE
:1028200008B50122016892070A48914206D1C16B9E
:1028300001221143C163C06B104008E0064A914277
:1028400006D1C26B02210A43C263C06B08400090EC
:1028500008BD000000100240000400407047000066
:1028600010B504460223203000290ED0042911D0CF
:1028700020464030082912D00C2915D0102918D034
:10288000C278012A1AD0012010BD827F012AFAD114
:10289000837714E0C27F012AF5D1C3770FE0027875
:1028A000012AF0D103700AE04278012AEBD143708B
:1028B00005E08278012AE6D1837000E0C37001222E
:1028C000206800F0AFFE13492068884205D0124A04
:1028D000904202D0114A904204D1426C0123DB03A2
:1028E0001A43426420680122884205D09107884239
:1028F00002D00B49884207D181680A4B194006294A
:1029000005D0DB1F994202D001681143016000200D
:1029100010BD0000002C014000440140004801406F
:1029200000040040070001007047704710B50146E1
:1029300080310A79012A15D001220A7124228A6085
:102940000268136814686408640014600122520766
:1029500093430022426600680360202088600A7169
:10296000104610BD022010BD10B504468030C0686E
:10297000202801D0022010BD00290BD0002A09D048
:102980000123A0681B03984206D12069002803D1C7
:10299000C80701D0012010BD0120E066002020679B
:1029A000204601F09DFA010003D1E06E012802D01B
:1029B0000121084610BD206810220262EFF310804A
:1029C000012383F3108823681C6814431C6080F380
:1029D0001088EEE7034A10B5904202D10846FEF790
:1029E000A5F810BD44020020704770B504460546A6
:1029F0008034207901281AD0012020712420A06081
:102A000028680668026852085200026028688268D6
:102A100007235B069A430A438260284600F096FF2C
:102A2000286806602020A0600020207170BD022070
:102A300070BD70B50446054680342079012819D050
:102A4000012020712420A0602868066802685208CE
:102A50005200026028688268D200D2080A4382606D
:102A6000284600F073FF286806602020A060002040
:102A7000207170BD022070BD704770477047000024
:102A8000F8B503680446D96918689A68B44D0E46CB
:102A90002E4025468035002E75D0B24EB24F1640DE
:102AA000074037436ED0CF0706D0C70504D50127AE
:102AB0001F622B693B432B618B0708D5D30706D0D8
:102AC000276802233B622B6904273B432B614B079A
:102AD00008D5D30706D0276804233B622B69022759
:102AE0003B432B610B0709D520230340334305D01B
:102AF0002668082333622E691E432E610B0509D513
:102B0000430107D501232668DB0233622B692026A7
:102B100033432B612B69002B42D089060AD5202133
:102B20000840C9050A40104304D0616F002901D054
:102B300020468847286921688968490602D42821E7
:102B4000084232D0204601F075F8216888684006B6
:102B500027D5EFF31080012282F310888B68402282
:102B600093438B6080F310882868002819D07F4930
:102B700081632868FEF716FD002811D02868816B54
:102B80000DE000E017E08E0615D5012720263F074F
:102B9000064017403E430ED0616FB5E0204688479F
:102BA000F8BD2046FFF76AFFF8BD2046FFF766FF35
:102BB00000202861F8BDE66E012E7DD1CE067BD5C2
:102BC000C60679D510221A62236898682646400600
:102BD0004036002849DA2968086840680004000C7B
:102BE000E8D0B78B8742E5D9F08308680068800693
:102BF00034D4EFF31080012181F310881968170194
:102C0000B943196080F31088EFF31080012181F33C
:102C1000108821688B685B085B008B6080F31088EC
:102C2000EFF31080012181F3108821688B68402721
:102C3000BB438B6080F310882020E8600020E066B2
:102C4000EFF31080012181F3108821680B68934312
:102C50000B6080F310882868FEF76AFC022020676A
:102C6000B08BF18B401A81B235E0B08BF18B401AFA
:102C700081B2F08B00289DD000299BD0EFF310800B
:102C8000012686F310881E68FF272137BE431E6089
:102C900080F31088EFF31080012383F310882368FA
:102CA0009E68304FFF433E409E6080F31088202096
:102CB000E8600020E06600E011E06067EFF310805C
:102CC000012383F3108823681D6895431D6080F3FA
:102CD0001088022020672046FFF77CFEF8BDCE0258
:102CE00008D5560206D50120000518622046FFF7D8
:102CF000C4FEF8BD0E060BD501278026FF05064051
:102D00003A40164304D0A16F002900D046E7F8BD31
:102D10004A0614D5420612D52046EFF3108101224F
:102D200082F310881A684024A2431A6081F3108845
:102D30002021A9600021816700F0A4F8F8BD0A02F3
:102D400005D5420003D52046FFF796FEF8BDC90120
:102D5000FCD50028FADA2046FFF746FEF8BD000051
:102D60000F0800000100001020010004153B0008BE
:102D700070B5040005D025468035A868002802D02B
:102D800006E0012070BD00202871204600F026F8E2
:102D90002420A86020680168490849000160A06AF1
:102DA000002802D0204600F0F3FD204600F092FFFC
:102DB0000128E7D0206841680922D202914341608E
:102DC000206881682A22914381602068016801227D
:102DD00011430160204600F041FE70BD70B586B021
:102DE000064614216846FDF7E6F921493068884215
:102DF0003CD12049CA6B012040040243CA63CA6B1C
:102E0000024005924A6B012002434A63496B002548
:102E1000014005910C2100910221049001910520AF
:102E20000295039569460007FEF700FD134C124812
:102E30002060A5603420E560606065618020A56148
:102E4000206120202562E0612046FEF745FC002835
:102E500001D0FDF71BFF80208451002211461C2069
:102E6000A662FEF7F9FD1C20FEF7EAFD06B070BD74
:102E7000004400400010024008000240D802002038
:102E8000704770477047FEE78068C007C00F704703
:102E90008068C007C00F704780684007C00F704748
:102EA000C0680005800F01D00020704701207047E6
:102EB000026807239B059A430A430260704710B5D6
:102EC00043690424214007248C40A3438A401343D0
:102ED000436110BD3EB500241E48009401941C4976
:102EE0000294016084600905C460416004254912B0
:102EF000456101610476447684760221C161014610
:102F000020310C70446284620C73456385630463F2
:102F10000C77C464FEF71CF9002801D0FDF7B6FE5B
:102F2000012000900194694602940A48FDF7FAFFD7
:102F3000002801D0FDF7AAFE0748009069460195D8
:102F40000448FDF7EFFF002801D0FDF79FFE3EBDCE
:102F500000240140A00000200200000408B50C4835
:102F6000816B012211438163806B1040002200902D
:102F700011460920FEF770FD0920FEF761FD0022D1
:102F800011460A20FEF768FD0A20FEF759FD08BD2C
:102F90000010024008B50848416B0122114341630B
:102FA000416B11400091426B02210A434263406B26
:102FB0000840009008BD00000010024010B588B025
:102FC00000240594069418480394049400940194F2
:102FD0001449029401603F218460416004614461AE
:102FE00012498461C160FFF785F9002801D0FDF71F
:102FF0004DFE01200003039003A90B48FFF7F6F9EB
:10300000002801D0FDF742FE00940194694606486D
:103010000294FFF739F9002801D0FDF737FE08B018
:1030200010BD0000002C014060010020FFF90000ED
:1030300010B58AB00024079408941C2168460994AE
:10304000FDF7B9F801211B48890701603F21846021
:103050004160046118498461C160FFF7BAFB002830
:1030600001D0FDF713FE079407A912480994FFF752
:103070000BF9002801D0FDF709FE602000900194B3
:1030800002940022694604940A48FFF70EFB0028C8
:1030900001D0FDF7FBFD042269460648FFF705FB5A
:1030A000002801D0FDF7F2FD0248FFF7B5FA0AB09B
:1030B00010BD0000AC0100201F4E000010B58AB00A
:1030C0000024079408941C2168460994FDF773F8BE
:1030D0001B481A4901603F2184604160046119491D
:1030E0008461C160FFF775FB002801D0FDF7CEFDBC
:1030F000079407A912480994FFF7C6F8002801D0E1
:10310000FDF7C4FD602000900194029400226946FE
:1031100004940B48FFF7C9FA002801D0FDF7B6FD6B
:10312000042269460648FFF7C0FA002801D0FDF7DF
:10313000ADFD0348FFF770FA0AB010BD000400406F
:10314000F80100201F4E000010B518481649016014
:103150001749416000218160C16001618161C161E5
:1031600001620C22416242618162FFF701FE002888
:1031700001D0FDF78BFD00210C48FFF75AFC002819
:1031800001D0FDF783FD00210848FFF72EFC002841
:1031900001D0FDF77BFD0548FFF7C8FB002801D0F3
:1031A000FDF774FD10BD0000004400404402002003
:1031B000A0680600F8B52E4D0220285E0021FDF71C
:1031C000F3FB06460E20285E0221FDF7EDFBFDF71E
:1031D000DDF807460E20285EFDF7D8F80446A889DA
:1031E000FDF7DFF8014628462246603000F077F808
:1031F0003946FCF7EBFFFDF7DBF81E4CE060288258
:103200003046FDF7C3F807460220285EFDF7BEF8FA
:1032100006462888FDF7C5F801462846324618308C
:1032200000F05DF83946FCF7D1FF0121C90748409D
:10323000FDF7BEF8A060A880A2680F484142824214
:1032400001DDA06003E0A2688A4200DAA160E268C2
:10325000824201DDE06003E0E068884200DAE1607C
:10326000E06801B2A06800B200F0F0F8F8BD00001C
:103270003403002060000020E02E000070B5002024
:10328000144D01464A00531908229A5ED3135A403E
:10329000D21A12B2824200DD1046891CC9B204293A
:1032A000F0D31E2814DD0C4E0024600041190820C4
:1032B000085E410040180A21FCF732FF06216143F5
:1032C00089194A88A41C101AE4B24880042CECD353
:1032D00070BD00002C04002034030020FEE7FEB582
:1032E000040014D0206C60640290E06B20640090B5
:1032F000A2611046E161FCF7BAFF0646E063207860
:103300000125ED07002804D0012838D035E0002041
:10331000FEBD31466068FCF7B2FF60623146A068CE
:10332000FCF7ADFFA16AFCF751FF0746A062606B96
:10333000A063206B606330460099FCF798FF206320
:10334000E26801461046FCF79AFFE0623846616980
:10335000FDF75CF8606906D36840A16AFDF756F88E
:1033600002D260696840A062A16A606AFCF72EFF21
:10337000E16A31E0206968402062206AFEBD304683
:103380000099FCF774FF6168FCF779FF60620190B7
:103390003146A068FCF773FF0746A062606BA0632C
:1033A000206B606301210098FCF7E4FF3146FCF7D5
:1033B00062FF0299FCF70AFF2063E26801461046AB
:1033C000FCF75DFF0646E06239460198FCF7FEFE19
:1033D0003146FCF7FBFE216AFCF7F8FE206221690A
:1033E000FDF714F82069C7D36840216AFDF70EF88D
:1033F000C3D2BFE700280CD0002141640164C1633F
:10340000816341630163C1628162416201628161E2
:10341000C161704710B5029C002814D0002A12D058
:103420000170116841605168816091680C301AC068
:1034300000210162C1618161816041610161C160FE
:10344000C1628162416210BD70477047C21303467A
:1034500053409A1A10B592B2002801DD012000E015
:103460000020404280B21446044001239B079C6325
:1034700082435A63C8130A464240101A80B2002998
:1034800001DD012100E00021494289B20346034ADF
:103490000B4093638843506310BD0000000400405C
:1034A00070B5FEF771FAFDF745F9144D0021288833
:1034B00000F024FEFCF775FF2C1D206068880121B8
:1034C00000F01CFEFCF76DFF3F26360631466060BB
:1034D000FCF77CFEFCF785FF09490A4D4018000502
:1034E000000D288031462068FCF770FEFCF779FF5C
:1034F000D1300005000DA88170BD00007C000020C7
:103500001C0E00003403002010B5FEF743FA10BD76
:1035100030B593B038216846FCF74DFE00250120F8
:103520000E950F95109540021195FEF799FA022419
:10353000E001039000944020059008200A90800349
:103540000B900320079440060C90089420070495E4
:103550000D9009956846FEF787FC002801D072B6E9
:10356000FEE707200EA931C102210EA81195FEF732
:1035700075FB002801D072B6FEE713B030BD70476E
:1035800010B50248FEF7A4FF10BD00006001002046
:10359000F0B502681E4B0124A4071E4D984203D0CB
:1035A000A04201D0A84203D17026B2434E683243F4
:1035B000194E1A4F98420AD0A04208D0A84206D00D
:1035C000174CA04203D0B04201D0B84204D103242A
:1035D0002402A243CC6822438024A2434C692243A4
:1035E00002608A68C2620A688262984203D0B0426E
:1035F00001D0B84201D1096901630121416101692A
:10360000C90703D00169490849000161F0BD000004
:10361000002C0140000400400044014000480140EB
:103620000020004010B5CB06DB0E0121046A994052
:103630008C430462016A9A401143016210BD30B5A7
:103640008468FF252D021B021343AC430B43234325
:10365000836030BD8268034B1A400A4307210A4346
:10366000826070478FFFCFFFF0B5056A026A52088B
:103670005200026243688269164C184E224092083A
:103680000C6892001443022295438A682A43124D23
:10369000A84204D0B04202D0114FB84206D1082748
:1036A000BA43CF681743042297433A46A84204D04E
:1036B000B04202D00A4DA84206D103252D02AB43E9
:1036C0004D691D438B692B434360846149684163A5
:1036D0000262F0BD8FFFFEFF002C0140004401405C
:1036E0000048014070B5046A026A10239A430262DE
:1036F00043688269164D2A4003252D02AA430D68AE
:103700002D021543202294438A6812012243114C52
:10371000A04207D18024A243CC6840262401224342
:10372000B24305E00C4CA04202D00C4CA04208D1A0
:103730000324A402A3434C69A4001C438B699B008F
:1037400023434360856149688163026270BD000064
:10375000FF8FFFFE002C0140004401400048014063
:1037600070B5046A026AFF2301339A430262436818
:10377000C269164D2A4092080D6892001543012235
:10378000520294438A6812022243114CA04208D18B
:103790001446CA68C614B443120222430415A24355
:1037A00005E00C4CA04202D00B4CA04208D10324EF
:1037B0002403A3434C6924011C438B691B0123434D
:1037C0004360C5614968C163026270BD8FFFFEFF3F
:1037D000002C0140004401400048014030B5046A1B
:1037E000026A01231B039A4302624368C269114DB6
:1037F0002A4003252D02AA430D682D0215430122FC
:10380000520394438A68120322430B4CA04205D012
:103810000A4CA04202D00A4CA04205D10124A403C4
:10382000A3434C69A40123434360C5614968016413
:10383000026230BDFF8FFFFE002C014000440140BA
:103840000048014070B5036A026A01263604B2439B
:1038500002624268456D0E4C25400C682C43750091
:10386000AB430D892D041D430A4B984205D00A4BEA
:10387000984202D0094B984203D14B69B2431B02D4
:103880001A434260446549688165056270BD000065
:103890008FFFFEFF002C0140004401400048014022
:1038A00070B5046A026A01231B059A4302624268EA
:1038B000436D104D2B400D682D021D4301235B0508
:1038C0009C430B891E050C4B2643984205D00B4B9D
:1038D000984202D00A4B984206D101241346A40410
:1038E0004A69A34392021A43426045654968C1652B
:1038F000066270BDFF8FFFFE002C014000440140B6
:103900000048014030B5036A046A64086400046238
:103910008469F025AC43120122430A24A3430B43DC
:103920008261036230BD30B5046A036A1025AB437F
:10393000036283690F252D031203AB431A43A023AF
:103940009C43090121438261016230BDF8B5044600
:10395000416E4034002915D00068816880680901F3
:103960004D0F0A4E400F3746315C083F385CC000AF
:10397000FCF7C0FB6085785D715DC000FCF7BAFBA9
:103980002085F8BD01206085FAE70000A447000803
:1039900010B5018D090707D501684A680123DB03CB
:1039A0009A43836B1A434A60018DC90707D00168A7
:1039B0004A6801235B049A43C36A1A434A60018D33
:1039C000890707D501684A6801231B049A43036BE2
:1039D0001A434A60018D490707D501684A680123E7
:1039E0009B049A43436B1A434A60018DC90607D56D
:1039F0000268916801231B039943C36B19439160CB
:103A0000018D890607D501688A6801235B039A4303
:103A1000036C1A438A60018D490612D503685A68FF
:103A200001210905446C8A4322435A60426C8A4250
:103A300007D10268516803235B059943836C1943DE
:103A40005160018D090607D501684A680123DB042E
:103A5000C06C9A4302434A6010BD0000FEB50546A3
:103A60000026803504462E61FDF78EFF0190206808
:103A7000006820270007002817DA25480090002258
:103A800039042046019B00F081FA00280DD0EFF3A5
:103A90001080012181F3108821680A6880239A43ED
:103AA0000A6080F31088AF6028E020680068400753
:103AB00027D5174800900121002289052046019B47
:103AC00000F064FA00281CD0EFF31080012181F38C
:103AD000108821680A68FF2321339A430A6080F323
:103AE0001088EFF31080012181F3108821688A6823
:103AF000520852008A6080F31088EF602E71032014
:103B0000FEBDAF60EF60E66626672E710020FEBD49
:103B1000FFFFFF0110B5806A002201464031CA83D1
:103B2000CA82FEF7ABFF10BDF8B5846A204680302C
:103B300081680546C668206880680027000600285E
:103B400006DA212904D156200753204600F0A4F8B4
:103B500020688068400606D5222E04D15E200753D7
:103B6000204600F067F828691021084328612046A4
:103B7000FEF784FFF8BD70B501460968806A0968E0
:103B800000228906002938DB5E210A52EFF31081FA
:103B9000012383F3108803681C68FF250135AC43BB
:103BA0001C6081F31088EFF31081012383F31088E8
:103BB00003689C68640864009C6081F31088EFF3DC
:103BC0001081012383F3108803689C684025AC436F
:103BD0009C6081F3108820238C210B50C16E012939
:103BE0000BD1EFF31081012383F3108803681C6865
:103BF0001025AC431C6081F310880267C16E012957
:103C000002D0FFF73DF970BD5C21095AFEF7E2FED4
:103C100070BD10B5806A01210167C16E012902D013
:103C2000FFF72FF910BD5C21095A4908FEF7D2FEB3
:103C300010BD000010B5EFF31081012282F310884F
:103C400002681368FF242134A343136081F31088B2
:103C5000EFF31081012282F31088026893680D4C03
:103C60002340936081F31088C16E01290BD1EFF3DB
:103C70001081012282F31088026813681024A34384
:103C8000136081F3108820228C210A500021C16624
:103C9000416710BDFEFFFFEF10B5EFF31081012269
:103CA00082F3108802681368C024A343136081F371
:103CB0001088EFF31081012282F310880268936864
:103CC0000124E405A343936081F310882021803010
:103CD000816010BDF8B50446016880682369E56914
:103CE0001843636900262B431843734A0B68734DCE
:103CF0002B4003430B602068416803231B03994357
:103D0000E368194341602168A069914201D0236AA8
:103D100018438B686A4D2B4003438B602068C16A4F
:103D2000636A090909011943C16266492368664843
:103D30008B420AD140698007800F09D001282CD01E
:103D4000022828D0032816D113E060498B4201D104
:103D5000002111E093420ED141690320800201400D
:103D60000AD001208002091A17D0091A13D0814203
:103D700001D1082100E010210120554D554FC0030D
:103D800093423DD100290AD0022911D0042909D03B
:103D9000082934D10BE00221EEE70421ECE7FEF71D
:103DA00009F801E0FEF71AF8050001D179E00546AF
:103DB000606A4000395A28460091FCF79BF9676811
:103DC00079007918814267D83903814264D300238E
:103DD00028461946009AFCF7B7F9020E09020302B9
:103DE000780811431818002251413A460023FCF785
:103DF000ABF903210902384A411A91424FD94BE0ED
:103E0000E269824227D1002906D0022907D004297D
:103E100007D0082940D108E0FDF7CCFF03E0284691
:103E200003E0FDF7DBFF00283BD0616A4900795AC7
:103E3000FCF760F9616840004A088018FCF75AF9FD
:103E40000146264A1039914226D8511C01400007EC
:103E5000400F084323E0002906D0022907D0042997
:103E600007D0082918D108E0FDF7A4FF03E0284691
:103E700003E0FDF7B3FF002813D0616A4900795AC7
:103E8000FCF738F961684A088018FCF733F90146F5
:103E9000124A1039914201D9012602E080B221680C
:103EA000C8602046012140304185018500206067BF
:103EB000A0673046F8BD000000800040F369FFCFE6
:103EC000FFF4FF1100380140401002400044004060
:103ED0000024F40084470008FFFC0F00EFFF0000FF
:103EE00070B50446816540308283002025468035C8
:103EF00028612221E9602968002919D0204BCB6272
:103F00002B68204919632B681F4959632968134698
:103F10008863A66D2168324624312868FDF72EFC9F
:103F2000002805D0102028612020E860012070BD05
:103F3000206900280CD0EFF31080012181F3108854
:103F400021680A68FF2301331A430A6080F310884E
:103F5000EFF31080012181F31088226893680B43EE
:103F6000936080F31088EFF3108081F3108821684C
:103F70008A6840231A438A6080F31088002070BD4D
:103F8000773B0008133C0008293B0008FFB581B0CF
:103F900005460E46044680350A9F32E0781C30D034
:103FA000FDF7F2FC0499401AB84218D8002F16D039
:103FB00020680168490724D5802E22D0402E20D0C9
:103FC000C169C94309070CD4082606622046FFF7D9
:103FD00031FE2E6100202871012005B0F0BD0320C4
:103FE000FBE7C069C04300050BD401202168C00273
:103FF00008622046FFF71EFE20202861002028715D
:10400000EDE72068C1693046884305D00021039858
:104010008142C3D00020E0E70121F8E710B5024853
:10402000FEF72EFD10BD0000440200208307FF2292
:10403000DB0E9A408907090E9940002808DB8308A7
:1040400009489B001B181868904308431860704784
:104050000007000F0838830804489B001B18D86924
:1040600090430843D861704700E400E000ED00E0B1
:1040700002E008C8121F08C1002AFAD17047704731
:10408000002001E001C1121F002AFBD170478842C5
:1040900000DA0846704710B51C46029B8A4201D8D8
:1040A000204610BD884201D2084602E0904200D965
:1040B0001046401A1B1B5843511AFCF731F80019DF
:1040C00000B210BDF8B50546079E06981C468A4208
:1040D00013D98C4211D994420FD28319DF0FFB18E8
:1040E0005B101BB2A54203D200930346224601E0B7
:1040F000214600962846FFF7CEFFF8BDF8B51C4EC6
:104100008F00F25904465000030E30464D000E3821
:10411000002B02D1415B002920D0415BFF23611AB3
:1041200009B29233C831994200D3445B44531149D8
:104130001046FCF7A4F805462046FCF732F90E4974
:10414000FCF79DF82946FCF741F83F21F05109069C
:10415000FCF73CF8FCF745F980B2F8BD2046FCF7C7
:1041600020F9F05102480E3844532046F8BD0000B3
:10417000800000209A99993E3333333F86B0FDF793
:1041800011FCFFF7C5F9FEF705FFFEF7E7FEFEF7A6
:10419000DBFFFEF74DFFFEF791FFFEF70FFFFEF787
:1041A00099FEFC48FCF70EFEFB48FEF7F7F80021ED
:1041B000F948FEF755FB0421F748FEF751FBF74895
:1041C000FEF7ECF80021F548FEF74AFB0421F3481E
:1041D000FEF746FB7D20C000FDF716FBFEF7B4FF9F
:1041E000FCF790FCFCF704FCFDF7CEFB0090FFF71A
:1041F00057F9EB4DEB4829880180A9894180018856
:1042000004462A3C618240886081E889A081E648B2
:1042100000786070E5480078A070E54E3088208313
:10422000E44F3868FCF7DDF860837088A083786815
:10423000FCF7D7F8E083E04E707A012802D000F056
:104240007FFA7EE1B07A022842D001287ED004288D
:104250007DD0E079002808D00020E0712084D74884
:10426000FFF7C8F8D648FFF7C5F8D44AD5485168D3
:10427000814203D1D2494968814206D0D249D34B09
:10428000121D0BC2CE4A121D0BC20120217A8002E0
:10429000002908D0C34900221A310A804A802039F7
:1042A0000A704A7022720099226C891A05297DD3FE
:1042B000BC49BC4E2A390A8C0024521C0A84298825
:1042C0006A46411A9180A989401A10811A36C7E1BD
:1042D000B4482A38C07802280BD0B24802212A38C4
:1042E000C17000F041FAB548FFF784F8B448FFF711
:1042F00081F8F0887D210901411809B2019101215D
:10430000C902401800B200900020305E02A9FCF7FC
:10431000B5FAB078A44C0628207001D2062002E03D
:104320000A2801D90A202070FDF72EFB0746A8486D
:104330000068381A4DD42078FCF74CFB0020305E22
:1043400002A9009B019AFCF7C5FC01E044E0FBE0F8
:104350002078FCF73FFB009001212078FCF76CFAF5
:10436000064600212078FCF767FA014630460E2207
:1043700050430B2251434018FCF713F8014695486F
:10438000FBF7BAFF8E4A8D49FCF704FA854C2A3CAC
:10439000206B381A142804DB2763FCF779FCFEF73E
:1043A0006DFF8B4800990268511800E0C8E0016079
:1043B00068882988401A7B49091F0880E889AA89EA
:1043C000821A4A800A88A2824988E181A08102205B
:1043D0002070FEF7EFFE07E72079012807D00120C3
:1043E00020717648FFF706F87548FFF703F8734821
:1043F000794942688A4203D1714A52688A4206D09A
:10440000764A774B001D0EC06D48001D0EC0082077
:10441000F188305609183088420001208B1AC002FA
:1044200018187D231B01D2188918627900B209B2CD
:10443000012A09D05B4B00220E331A805A80163BAA
:104440001A705A7001226271564B009A2A3B5B6BBC
:10445000D21A052A74D32A886B46821A9A80AA89AE
:10446000504E8A1A1A81002203920492988119826E
:1044700014460E3601E0022C12D00027610001A87C
:10448000405E0146C2135140891A464A09B2083AB1
:10449000D35D002B06D03C2908DD0023D35519E05D
:1044A0000127EBE7282915DC0120D05520460621FD
:1044B0004843295A40194180002079007052002C4D
:1044C00002D0022C02D02BE03C4800E03C48FEF732
:1044D00091FF25E0962904DA48439621FBF720FE58
:1044E00000B22D2801DD2D2004E02C21C943884293
:1044F00000DA08467B00F25E801A00B2062801DD71
:10450000062004E00521C943884200DA0846101855
:1045100021460622F05251436A5A10184919488020
:10452000A41CE4B2042CA6D31E4869468988001F47
:1045300001806946098941801A4900982A394863EF
:10454000F4E000F011F94FE6A07904280CD0042023
:10455000A071144800211230018041801748FEF7F5
:1045600049FF1748FEF746FF70884B21C9004843B2
:104570001C4900B2884202DB8900884200DD0846FF
:104580000021715E1422D1422EDA064912310880D0
:1045900054E00000A0000020AC010020F801002041
:1045A000340300202A0000208A0000208800002018
:1045B0007C00002080000020000400204C0300202C
:1045C00094030020000020410AD7A33C0000A04033
:1045D0009800002000007A44000010410AD7233CD4
:1045E0000000F040B80B0000142901DD4042CCE788
:1045F00050490020085E002801DAC83002E0002897
:1046000001DDC83808800020085E002800DA40423A
:10461000642801DA002008800220085E002801DA00
:10462000C83002E0002801DDC83848800220085E5A
:10463000002800DA4042642801DA002048803D4822
:1046400002250188455F49420EB229463046FEF7F1
:10465000FDFE04202070E6822582C5E5022C12D0E2
:104660000027610001A8405E0146C2135140891A2B
:10467000304A09B2183AD35D002B06D03C2912DD2E
:104680000023D3551CE00127EBE7282918DC012083
:10469000D05520460621484307E0274800E0274838
:1046A000FEF7A8FE32E006206043295A40194180F7
:1046B000002079007052002CEFD0022CEFD025E0C2
:1046C0006E2904DA48436E21FBF72AFD00B2372831
:1046D00001DD372004E03621C943884200DA08466C
:1046E0007B00F25E801A00B2082801DD082004E099
:1046F0000721C943884200DA0846101821460622DD
:10470000F05251436A5A101849194880A41CE4B267
:10471000042CA3D307486946898816380180694666
:1047200009894180034900983C390864FEF742FD3D
:1047300007E700003C0000204C0300209403002009
:1047400000200121890748638863C8630449086021
:10475000044948638863C863024940310860704770
:10476000400000400004004070B5054C0025257055
:1047700001206070FDF708F92061E58070BD000040
:1047800088000020010002000400060008000A0062
:104790000C00100020004000800000010101010316
:1047A00007010000080402040801010100000000E4
:1047B00000000000000000000000000000000000F9
:1047C00000000000000000000000000001000000E8
:1047D00002000000030000000400000006000000CA
:1047E00007000000080000000900000000000000B1
:1047F00000000000000000000000000001000000B8
:10480000020000000300000004000000FF7FAA6A0D
:1048100055550040AB2A55150000ABEA55D500C0F0
:10482000ABAA569501805695ABAA00C055D5ABEA08
:1048300000005515AB2A00405555AA6AFF7F0000BD
:104840006048000800000020A00000007040000840
:1048500000490008A0000020A007000080400008D8
:10486000FF0000FFFFFFFFFFFF00E903EA03EB0388
:10487000EC03D107D207D3070000000000000000BE
:104880000000000000000000000000000000000028
:104890000000000000000000000000000000000018
:1048A0000000000000000000000000000000000008
:1048B0000100000004000000000000000024F400DB
:1048C00000000000000000000000000000000000E8
:1048D00000000000000000000000000000000000D8
:1048E00000000000000000000001000000000000C7
:1048F00000000000000000000000000000000000B8
:04000005080000C12E
:00000001FF
